:020000040000FA
:10000000680C2020D5000000D9000000DB000000B3
:1000100000000000000000000000000000000000E0
:10002000000000000000000000000000DD000000F3
:100030000000000000000000DF000000E100000000
:10004000E3000000A10E0000E3000000E300000058
:10005000E3000000E3000000E3000000E300000014
:1000600000000000E3000000E300000000000000CA
:1000700000000000E3000000E3000000C11C0000DD
:10008000E3000000E3000000191B0000AD1C0000AD
:10009000E3000000E300000000000000000000009A
:1000A000E3000000E300000000000000000000008A
:1000B000E300000000000000E3000000E300000097
:1000C0000348854600F080FC00480047FD240000FE
:1000D000680C202003480047FEE7FEE7FEE7FEE746
:1000E000FEE7FEE7C1000000F8B502464A40D40F23
:1000F00042004B0052085B089A4202D20246084670
:1001000011464A0023D0C30D4A00DDB2120EAD1ACB
:10011000202D35DA49020126490AF6058A19002CF4
:1001200000D0524220214F1B1146B9402A411018DD
:10013000C20D9A4221D0002C17D0012D08DCDA051F
:10014000801AD20F8019D207DBB200F0F7FAF8BD9F
:10015000DA05801A012340001B06C01880185A4295
:100160008018CA0F1043490007E04908C20711432D
:10017000DA05801A80194008801800F0D7FAF8BD17
:1001800061000122511A001BF7E70122D2075140FA
:10019000AAE70122D2075040A6E7024670B54A40BE
:1001A000D30FDB0740002DD04A002AD0010E140ED9
:1001B000000212020919400A520A8418E501044695
:1001C0005443000A120A2E045043A4194219200C69
:1001D000C543AA18120C0125AD03521C5219120472
:1001E0007F39240400D0521C104301D44000491E22
:1001F000C2B20C06C0092018401C4008802A02D058
:1002000003E0002070BD40084000002900DA002013
:10021000184370BDF0B507460846584087B0C00F78
:10022000049048000E46590040084908BC1A88410D
:1002300005D2384631461E4617460B460246580040
:10024000400810434CD0300D039040055900400D3C
:10025000490D0590401A0290402872DA18030121D6
:10026000000B09050843019004980092002805D06E
:100270000199524200208841009201900298402149
:100280000A1A0199009800F01DFA05460C466B46C3
:1002900007CB00F038FAC0197141039A0E0D002304
:1002A000D71756401A467A40164344D0049A002A7B
:1002B0002DD0029A012A039A15DC1205C01A914129
:1002C00001263605001C7141D20F059ED20700930E
:1002D000019202962A46234600F076FA07B0F0BD56
:1002E00038463146FAE71605224A0F46B218C01AB8
:1002F000B74101210905001C4F4100187F411146FB
:1003000018187941E20F10436D19644113E0E207B8
:100310006D0815436408C2071443039A01261205A9
:10032000C01A91413605001C7141CE074008304388
:100330004908C01851412A46234600F038FACDE753
:10034000FFE7049801224000C117121A00238B41D5
:1003500004983146C417381AA141EEE730B401249D
:10036000E407634030BC55E730B40124E407614042
:1003700030BC4FE70000E0FFF0B51FB488B00B9928
:100380000998002448400999C00F4900490809917B
:10039000C0070B990090490049080B9109990898EA
:1003A000A64608431CD00B990A98084318D0099810
:1003B00001244000420D4800410D09982405000326
:1003C000000B204309900B980003000B20430B9077
:1003D00050181C494018002201901446104605E0B0
:1003E000002001460DB0F0BD032801DA034600E00D
:1003F00003239C46C11A0AAE0AE05F0008ADED5B1C
:100400004F00F75B7D430027AA187C41491C5B1E07
:100410006145F2DD410004AB5A522104120C0A433B
:10042000240C401C0828DFDB0198029000997046DC
:1004300001910090059B049A0799069800F0C4F971
:10044000D0E700000DFCFFFF0122D207002800DBEF
:10045000101A002900DB511A814201D8012070478F
:10046000002070470122D207002800DB101A002963
:1004700000DB511A814201D20120704700207047F1
:100480000122D207002800DB101A002900DB511AD4
:10049000814201D301207047002070470122D2071A
:1004A000002800DB101A002900DB511A814201D913
:1004B0000120704700207047C217C10F504010B58F
:1004C0004018CA079623002100F038F910BD00003B
:1004D0000EB5C217C10F5040CA0740180021054B86
:1004E0000293019200910A460B4600F06DF903B0A9
:1004F00000BD000033040000C20F41004002012390
:10050000400ADB05D207090EC0187F2901DA002056
:100510007047962903DC9623591AC84001E09639A2
:100520008840002AF4D040427047000070B5CD0FDB
:100530004A0009030123090B1B0519430B4BED0767
:100540000024520D9A4201DA002070BD074B34336B
:100550009A4203DC9A1A00F0C5F802E004495118E7
:1005600088402C43F1D0404270BD0000FF030000E2
:10057000CDFBFFFFC20FD207400040080BD0C10DDA
:100580000723DB01C91840020905400A1143C208CC
:10059000400711437047002001467047CB0FDB072F
:1005A000490010B5490802460A4307D00A0D07243E
:1005B0000903E401090B121B002A01DC002010BD15
:1005C000C900440F0C43C100E018D205801800F0A8
:1005D000ADF810BD70B50446002903D000202022DC
:1005E000012310E0002801D00020C043C046C046CF
:1005F0000DE02546D5408D4205D30D469540641B40
:100600001D46954040191546521E002DF1DC21462D
:1006100070BD000070B5002504462E46002911D09B
:10062000002C01DA01254442002901DA0126494261
:100630002046FFF7CFFFB54200D04042002D00D04A
:10064000494270BD002C02DA0121C90702E0002CEA
:1006500000DD03490846C046C046214670BD000083
:10066000FFFFFF7FF0B51FB40646002082B00546AD
:100670004024019100901BE0019922460F4630462C
:1006800000F030F8049A059B801A994110D3104667
:100690001946224600F016F8361A8F410197224675
:1006A00001200021009F00F00DF838184D41009006
:1006B0002046641E0028DFDC019B00982946324654
:1006C00007B0F0BD10B5202A04DB0146203A914066
:1006D000002010BD914020239C1A0346E34019439B
:1006E000904010BD10B5202A04DB0846203AD040C7
:1006F000002110BD0B46D340D0402024A21A9140C7
:100700000843194610BD10B5202A06DBCB17084652
:10071000203A1041C1170B4306E00B461341D0406D
:100720002024A21A91400843194610BD002904DA7A
:10073000401C490001D140084000704770B40024BB
:10074000050C05D11024000402D1002921D0112468
:10075000050E01D100020834050F01D10001241D4E
:10076000850F01D18000A41C002801DB4000641C1F
:10077000002908D020252E1B0D46F540A14000D0B1
:1007800001212943084301061B1B000ADB1D02D57A
:10079000002070BC7047DB05181880180029F8DAB3
:1007A000401C4900F5D170BC40084000704710B5AE
:1007B000002B08DA0024401C614192185B411A4367
:1007C00001D14008400010BDF0B51FB482B005460D
:1007D0000C0003D0084602F00DFB02E002F00AFB19
:1007E00020300246009021462846FFF76BFF049B0D
:1007F000059A04460F4618431143084314D018467F
:1008000010431BD0009840210A1A18460599FFF79B
:1008100069FF05460E46009A05990498FFF752FFB6
:10082000084305D0012004E02046394607B0F0BD5A
:100830000020C11705430E432C43374300990E98FF
:100840006305401A7905E40A00220C43FD0A0A30C8
:1008500002D500200146E9E70105101969410C9C09
:100860000D9D00196941FFF7A2FFDFE7F0B50C46C7
:100870005C4085B0E40FE40703944C000026640854
:1008800059009446490802460296224321D0624606
:100890000A431ED06200570D4A000E032303550D74
:1008A000012402462C492405781B1B0B360B4018EB
:1008B00023432643614600901C46501AB44103D39B
:1008C0000098401C009002E0921800985B410028BC
:1008D00003DA0020014605B0F0BD00200121090522
:1008E0000746864611E064461D46141BB54106D3F3
:1008F0006546521BB341744607430C43A646CD07D9
:1009000040084908284392185B4105460D43EAD147
:100910001046184313D060461946504071400843B2
:1009200006D06046101AB34106D20122002306E029
:1009300000220123DB0702E00122D243531000987A
:1009400074460105381C6141029C039D00196941F0
:10095000FFF72DFFBFE70000FD0300004A00090379
:100960000123090B1B0519430A4B10B5520D9A427E
:1009700002DA0020014610BD064B34339A4203DCF4
:100980009A1AFFF7AFFE10BD034BD218FFF79AFE7D
:1009900010BD0000FF030000CDFBFFFF10B50029D4
:1009A00004DB0124E40740428C412146002B04DB98
:1009B0001C460123DB075242A341994200D19042D9
:1009C00010BD0000000000001CB509480090094857
:1009D000019005460126009C05E0E36807CC3343FF
:1009E0000C3C98471034AC42F7D3FFF76DFB000086
:1009F000603D0000803D0000F0B588B03C4A1068C2
:100A0000402404403B480460012569023A4E3368A3
:100A10000B40029343602902336837460B4007932B
:100A20008360116808230B400693C360A904136810
:100A30000B4005930361E90413680B400493436181
:100A40002B051168194081612E061268324001920F
:100A5000C2613A680423134000930362EA053B68CD
:100A6000134043623A68324082626F06224E366813
:100A70003E40C6620394002C00D00560029F002F08
:100A800000D04560079C002C00D08560069C002C9F
:100A900000D0C560059C002C00D00561049C002C92
:100AA00000D04561002900D08561750E120EDC0D65
:100AB000009B9B08036244628262C562019A120E27
:100AC0000192090D049AD30C059A940C069AD50844
:100AD000079A160A7F0A039A920984C00660456045
:100AE0008460C36001610199416108B0F0BDC046F6
:100AF00080330A403800202080130A40F0B581B0CE
:100B00000546354E34682146FFF73FFB0121C907F2
:100B1000884332490968FFF7C1FC002801D13560DC
:100B20002C462F4E30682F49FFF737FB05462E49DC
:100B30002046FFF732FB2946FFF7D6FA3060FFF771
:100B400019FD024629A00B4602F044F92948006825
:100B50003168FFF71AFB0446274805680460274FF1
:100B600038682146FFF7C0FA064638602046294615
:100B7000FFF70BFB0546224801683046FFF70DFBE7
:100B80000646204800682146FFF707FB3146FFF77D
:100B9000ABFA04461C4800682946FFF7FEFA2146D6
:100BA000FFF7A2FA0446194D2946FFF79DFAFFF711
:100BB000A3FC1426142800DB30461549086028469B
:100BC0002146FFF7E2FAFFF797FC142800DB3046D6
:100BD0001049086001B0F0BD6C00202030002020DA
:100BE000680020206666663FCDCCCC3D5961773ADF
:100BF000256620002C012020E00320203801202041
:100C00002C00202034002020280020200000A040BC
:100C1000B003202098002020811E091F00BFFCD2B5
:100C200070470000F0B584B06B4A82180292734B93
:100C3000C618784BC21800922A4BC4180A79019141
:100C40000D68294F202A03920AD0254BC018002A8C
:100C500017D16B1E029A536023683B40882517E02A
:100C6000681E029A506020683840204B184320606C
:100C70006068384018436060012045071C4F1046EB
:100C800008E06B08029A536023683B400525ED019C
:100C90002B432360009903683B402B43036030687B
:100CA0004F4B18403060706818407060002008603A
:100CB00048608F20C0432369034023616369034078
:100CC00063610198407903990843BD210140106890
:100CD000084B0340C818801C106004B0F0BDC0462B
:100CE000741800007018000024F93FF0010400009F
:100CF000FFFFFFCF4000FFCF70B5374A82184B6827
:100D000053603E4BC3180878222857D8840001A5A9
:100D10002C59A746B30D0000BD0D0000B30D000017
:100D2000BD0D0000BD0D0000BD0D0000BD0D00009B
:100D3000BD0D0000BD0D0000BD0D0000BD0D00008B
:100D4000BD0D0000BD0D0000BD0D0000BD0D00007B
:100D5000BD0D0000A10D0000BD0D0000A10D0000A3
:100D6000BD0D0000BD0D0000BD0D0000BD0D00005B
:100D7000BD0D0000BD0D0000BD0D0000BD0D00004B
:100D8000BD0D0000BD0D0000BD0D0000BD0D00003B
:100D9000BD0D0000A10D0000BD0D0000A10D000063
:100DA000032424071568A543012464072C19146043
:100DB00004E0032424071568A54315600C69D4607A
:100DC000CC68064D25401C68054E264074191C60F1
:100DD000097A0143116070BD0418000077770200A2
:100DE0008888FDFF10B507239B04194092008018E6
:100DF000024A84589C436118815010BD301800008D
:100E000010B5029CA400001911431943014A8150F6
:100E100010BDC0465018000092008018014A815051
:100E20007047C0461018000010B501221203831845
:100E30000C789C604B7883508978014A815010BDB2
:100E40000C110000B0B51122120283580124A343F3
:100E500083508B780C881C438B882343094C1C409F
:100E60008358094D1D402B1983508B79CC791C4335
:100E7000097A21437E231940801842689A43511809
:100E80004160B0BD18670000E798FDFF10B5012272
:100E9000120383180C789C604978815010BD0000C3
:100EA000F0B58720C1031E480246103A1268134667
:100EB0000B401C4C236001231D0414043B4C09D43B
:100EC0002A4213D0DE032768174D2D6837420AD116
:100ED0006D1C09E02768144E36682F4201D1751E3B
:100EE00002E0751C00E06D1E0F4E35609D059603F7
:100EF00009D42A420FD05B0424680C4A12681C42B1
:100F000006D0521E05E02368084A12682B42F8D02A
:100F1000521C064B1A6002680A430260F0BDC046CC
:100F200048100A40B40220207000202074002020C5
:100F3000F0B581B01B491C480860B34D02262E60F5
:100F40001A4F386880070BD53224052001F0B6F916
:100F5000641E3868800701D52006F6D120060DD022
:100F600001242C60052001F0A9F92C6181200D4994
:100F700008602E602E64002001B0F0BD8120094978
:100F800008602E602E6401272F612E612F600524DA
:100F9000204601F093F92E60204601F08FF9384683
:100FA00001B0F0BD088042408100040080130A4077
:100FB000B0B5B02000F030FA102000F02DFA002576
:100FC000284600F029FA0024204600F055FA681C53
:100FD00045B2002DF7D5B12000F01EFA102000F028
:100FE0001BFA204600F018FA0025284600F044FAC3
:100FF000601C44B2002CF7D5B22000F00DFA10208E
:1010000000F00AFA284600F007FA0024204600F013
:1010100033FA681C45B2002DF7D5B32000F0FCF977
:10102000102000F0F9F9204600F0F6F900252846D6
:1010300000F022FA601C44B2002CF7D5B42000F076
:10104000EBF9102000F0E8F9284600F0E5F900245B
:10105000204600F011FA681C45B2002DF7D5B520E6
:1010600000F0DAF9102000F0D7F9204600F0D4F9AA
:101070000025284600F000FA601C44B2002CF7D589
:10108000B62000F0C9F9102000F0C6F9284600F09B
:10109000C3F90024204600F0EFF9681C45B2002D8A
:1010A000F7D5B72000F0B8F9102000F0B5F92046C8
:1010B00000F0B2F9002000F0DFF9601C44B2002C0F
:1010C000F8D5B0BDF0B583B0029040B2E94D2E46E0
:1010D00010360028304600DA28460124E107019145
:1010E0000160204601F0EAF880272F60204601F0D9
:1010F000E5F82F61204601F0E1F8029840063046FD
:1011000000D5284601990160204601F0D7F82F60EC
:10111000204601F0D3F82F61204601F0CFF8029865
:101120008006304600D5284601990160204601F02E
:10113000C5F82F60204601F0C1F82F61204601F06C
:10114000BDF80298C006304600D5284601990160D6
:10115000204601F0B3F82F60204601F0AFF82F6170
:10116000204601F0ABF802980007304600D528462B
:1011700001990160204601F0A1F82F60204601F09E
:101180009DF82F61204601F099F8029840073046FB
:1011900000D5284601990160204601F08FF82F60A4
:1011A000204601F08BF82F61204601F087F8029865
:1011B0008007304600D5284601990160204601F09D
:1011C0007DF82F60204601F079F82F61204601F06C
:1011D00075F80298C00700D02E460198306020466E
:1011E00001F06CF82F60204601F068F82F6120466E
:1011F00001F064F82F60204601F060F82F6120466E
:1012000001F05CF803B0F0BD90120A4080B5AE204A
:1012100000F002F9D52000F0FFF8802000F0FCF883
:10122000A82000F0F9F83F2000F0F6F8D32000F0F5
:10123000F3F8002000F0F0F8402000F0EDF8A120D5
:1012400000F0EAF8C82000F0E7F8DA2000F0E4F84F
:10125000122000F0E1F8812000F0DEF8CF2000F04D
:10126000DBF8D92000F0D8F8F12000F0D5F8DB2029
:1012700000F0D2F8302000F0CFF8A42000F0CCF835
:10128000A62000F0C9F88D2000F0C6F8142000F068
:10129000C3F8AF2000F0C0F8FFF78AFE80BD000061
:1012A000F0B583B016460C46400002907E30B02167
:1012B00001910843C0B200F0AFF8E700083FF8B270
:1012C00004091034204600F0A7F808253D402846C0
:1012D00000F0A2F8300121494618214FF05D00F0DE
:1012E000CBF8F619707800F0C7F8B07800F0C4F8C1
:1012F000F07800F0C1F8307900F0BEF8707900F0B5
:10130000BBF8B07900F0B8F8F07900F0B5F80298C1
:10131000401E01990843C0B200F07EF8204600F05C
:101320007BF8284600F078F8307A00F0A5F8707A5B
:1013300000F0A2F8B07A00F09FF8F07A00F09CF884
:10134000307B00F099F8707B00F096F8B07B00F0ED
:1013500093F8F07B00F090F803B0F0BD1C3700006C
:1013600000FEFFFFF0B587B0069314460D46002A35
:10137000049005D405942B222946FFF791FF05E040
:101380002D222946FFF78CFF644205940698002819
:101390003ED00698471E801E0190681C02900025D2
:1013A0001C4E039713E00121029844190598FFF79A
:1013B00011F90A21FFF70EF930220A43E1B204982D
:1013C000FFF76EFF7F1E6D1C0698854220D00398A4
:1013D0008542E8D003200199491B032901D201214C
:1013E00005E03A46824301217143121FFCD1EA43D2
:1013F000069BD2180240D7D0012A01D10A2005E06D
:10140000022A02D07D20C00000E064204143CBE7E7
:1014100007B0F0BD10270000F0B581B000900124A6
:10142000E607774F3E60204600F048FF80253D608C
:10143000204600F043FF3E61204600F03FFF3D6143
:10144000204600F03BFF7820FFF73CFE0020FFF72E
:1014500039FE0098FFF736FE3E61204600F02EFF71
:101460003D60204600F02AFF3E60204600F026FF47
:1014700001B0F0BD90120A40F0B581B00090012497
:10148000E6075F4F3E60204600F018FF80253D6074
:10149000204600F013FF3E61204600F00FFF3D6143
:1014A000204600F00BFF7820FFF70CFE4020FFF7EE
:1014B00009FE0098FFF706FE3E61204600F0FEFEA2
:1014C0003D60204600F0FAFE3E60204600F0F6FE49
:1014D00001B0F0BDF0B587B0484878490160484D8B
:1014E00001262E610524204600F0E8FE2E602046ED
:1014F00000F0E4FE434908680F460690204600F0DD
:10150000DDFE2E61204600F0D9FE2E60204600F060
:10151000D5FE38680590204600F0D0FE2E612046AA
:1015200000F0CCFE2E60204600F0C8FE3868049023
:10153000204600F0C3FE2E61204600F0BFFE2E6064
:10154000204600F0BBFE38680390204600F0B6FE4F
:101550002E61204600F0B2FE2E60204600F0AEFE66
:1015600038680290204600F0A9FE2E61204600F067
:10157000A5FE2E60204600F0A1FE386801902046AE
:1015800000F09CFE2E61204600F098FE2E60204662
:1015900000F094FE1B480768204600F08FFE2E6185
:1015A000204600F08BFE2E60204600F087FE154896
:1015B0000568204600F082FE0698420004210A4099
:1015C0000220059B03409A189200049B5B000B408D
:1015D000D218039B03409A189200029B5B000B40B9
:1015E000D118019A02405118490007407818A907FC
:1015F000C90F0818C0B207B0F0BDC046088042400D
:1016000090120A4080130A40F0B5294A852393605E
:101610000120840327490C60536043030B60264B71
:1016200082241C65254C651C5D65254E96618125CF
:101630005D67156055661D665D66224F9F60966604
:101640001663D4601461546154635D635D611D6011
:101650005D609C65DC649C64DC639462D46294632A
:1016600094649C61D464146554650A46303A164B00
:1016700013600A46403A154B1360154A0A6080070A
:1016800014490A6802430A600869134A02430A615E
:101690008720C00311490A6A02430A620A680243AA
:1016A0000A60232000020E4908600863F0BDC046AE
:1016B00088804240D0120A400480424081000400E9
:1016C00081000500810002000010001483000080EA
:1016D0008310009490130A401510000028100A404F
:1016E000A0320A40B0B582B0104C11492046FFF735
:1016F0009BFB10492046FFF795FA00252046294616
:101700002A46FFF789FB0095204629462A462B46A4
:10171000FFF776FB204629462A46FFF763FB06487B
:1017200001218160016002B0B0BDC0460000874069
:101730000C3D0000103D00000011874070B582B0E4
:10174000F44C10492046FFF76FFB0F492046FFF786
:1017500069FA00260125204631462A46FFF75CFB40
:1017600000952046314632463346FFF749FB204676
:1017700031462A46FFF736FB0448856002210160A6
:1017800002B070BD183D00001C3D00000051084033
:101790000F48002101600320C1430E480246083A69
:1017A00013680B401360016801229143016011022C
:1017B00003688B4303601103001F02680A43026041
:1017C000FF20000204490A6882430A607047C0464D
:1017D00008030B4008010B4000E400E00548042129
:1017E00001601F21416000218160016805220A43D8
:1017F0000260704710E000E010B5084C0849204630
:10180000FFF712FB07492046FFF776FA0648016802
:101810000122114301600548026010BD002086408E
:10182000243D0000283D00002830864008318640D5
:1018300010B5084C08492046FFF7F6FA074920463C
:10184000FFF75AFA06480168012211430160054872
:10185000026010BD000086403C3D0000403D00009D
:10186000281086400811864010B5154C15492046B1
:10187000FFF70CFB14492046FFF7E4FA0320C103ED
:10188000124802688A4302600169114A0A40911CA9
:10189000016141690B220A4334218A434261416854
:1018A0000122114043689343591841609102094B4A
:1018B0001C680C431C6001681143016010BDC046E8
:1018C00000801040543D0000563D00000091104043
:1018D0000000FFFF2890104080B500F01BF8FFF7D4
:1018E00093FEFFF755FFFFF7FDFEFFF727FFFFF71A
:1018F00083FFFFF79DFFFFF7B7FFFFF76FFFB820EC
:10190000024900220A5402490A5480BDF8012020ED
:101910003C012020F0B581B00D480E4941600E4ACF
:1019200051600E4B59600E4C61600E4D69600E4E59
:1019300071600E4F79600E4901601160196021607D
:101940002960316039601020FFF766F901B0F0BD01
:1019500000080A40030000B100280A400008874040
:101960000048084000288640000886400088104053
:1019700001000026F0B581B0514A81211160C64FA7
:1019800002243C603C6401253D61009040B2103768
:101990000028384600DAC0480460204600F08EFC7B
:1019A000BD4805600526304600F088FCBA48056150
:1019B000304600F083FC00984006384600D5B64813
:1019C0000460204600F07AFCB3480560304600F021
:1019D00075FCB1480561304600F070FC0098800647
:1019E000384600D5AC480460204600F067FCAA48A1
:1019F0000560304600F062FCA7480561304600F003
:101A00005DFC0098C006384600D5A3480460204617
:101A100000F054FCA0480560304600F04FFC9E48A2
:101A20000561304600F04AFC00980007384600D5B2
:101A300099480460204600F041FC97480560304614
:101A400000F03CFC94480561304600F037FC0098FB
:101A50004007384600D590480460204600F02EFC30
:101A60008D480560304600F029FC8B480561304602
:101A700000F024FC00988007384600D586480460B2
:101A8000204600F01BFC84480560304600F016FC40
:101A900081480561304600F011FC0098C00700D075
:101AA0007D4F3C60204600F009FC7B4C25603046B1
:101AB00000F004FC2561304600F000FC01B0F0BDF0
:101AC00008804240B0B50C46014601252803AB060C
:101AD000714A012902DB1060136102E0136010619A
:101AE00049420A480022FFF797F928026A0208498A
:101AF000012C02DB08600A6102E00A6008616442AE
:101B0000044801222146FFF787F9B0BD0000874055
:101B100090320A4000400840F0B55948006800067D
:101B200000D1ABE057490A680020086056490A60B6
:101B300056490A6808605142554A116001210A0756
:101B4000544B1B685C1C0FD09C00544B1B59002B42
:101B500035D1534B1D59002D31D11B191960514BF3
:101B600018514D4B1A612AE04C4C002525604E4E11
:101B7000356065607560A560B560E560F5602561FC
:101B8000356165617561A561B561E561F5612562E4
:101B9000356265627562A562B562E562F5622563CC
:101BA000356365637563A563B563E563F5632564B4
:101BB000356465647564A564B564E564F564384CA2
:101BC000384D05E01E69761C1E611430502855D032
:101BD0002358002B0CD02B58C72B03DC2B585B1C35
:101BE0002B5005E02C4B1A60002323502B4B19502F
:101BF00027187B68002B0ED02B185E68C82E03DADE
:101C00005E68761C5E6006E0234B1A6000237B60F2
:101C1000224B1B185960BB68002B0ED02B189E68F6
:101C2000C82E03DA9E68761C9E6006E01A4B1A6086
:101C30000023BB60194B1B189960FB68002B0ED06A
:101C40002B18DE68C82E03DADE68761CDE6006E03C
:101C5000114B1A600023FB60104B1B18D9603B69C5
:101C6000002BB2D02B181E69C82EABDB0A4B1A60B2
:101C700000233B61094B1B181961A6E7F0BDC04664
:101C80002010864074002020340120207000202085
:101C9000300120202400202090120A4058032020E8
:101CA000B802202008032020D400202080B503485B
:101CB0000068000601D0FEF79FFE80BD2030864000
:101CC00010B512480068C0B20B281ED11048C16977
:101CD000104A13887E2B13D813885C1C14800E4A7C
:101CE000D1540268D20708D00268D20705D0026832
:101CF000D20702D00268D207F3D1C9B2816101E0F4
:101D00000020108005480121017010BD2090104076
:101D10000891104066042020E40320206404202061
:101D2000F0B583B00446484E35682946FEF72DFAD3
:101D30000121C9070291884344490968FEF7AEFBB7
:101D4000002801D134602546414806680027304606
:101D50003946FEF7A3FB009030462946FEF715FAF8
:101D6000044628463146FEF7BFF901460098002890
:101D7000019101D1029402E0029848400290284665
:101D80003946FEF76FFB0090002800D102943046E0
:101D90003946FEF767FB0646002801D102980190FC
:101DA00028463946FEF77AFB0028019800D10298B0
:101DB000002E00D104460099002900D10446254890
:101DC00005680460244E30682146FEF78DF901460F
:101DD000306022480068FEF7E0F9064620480068B7
:101DE0002146FEF7DAF93146FEF77EF9064620462F
:101DF0002946FEF7CAF901461A480068FEF7CDF9F0
:101E00003146FEF771F904468120C5052046294672
:101E1000FEF76AF9FEF770FBC117884314261428F1
:101E200000D330461049086028462146FEF7ADF938
:101E3000FEF762FBC1178843142800D330460B49D4
:101E4000086003B0F0BDC046A4002020140020208C
:101E5000080020208C002020880020200C0020205A
:101E60001800202004002020B40320209C00202003
:101E7000F0B587B00292019102464069002804DD66
:101E80009069002801DD0020EEE0002105230F46C7
:101E900025E005980691FEF71BFB00252A46994B85
:101EA000FEF7B8F904460E463846FEF711FB074622
:101EB0000391204631462A46934BFEF75DFA3A4697
:101EC000039BFEF7A7F9FEF731FB059B0699049AE1
:101ED0000746491C9B1D1832112B00D1BAE010682F
:101EE0000128049205931FDB581F0691FEF7F0FAB4
:101EF00000252A46834BFEF78DF904460E463846E8
:101F0000FEF7E6FA07460391204631462A467E4B05
:101F1000FEF732FA3A46039BFEF77CF9FEF706FB22
:101F20000699049A0746491C5068012820DB059849
:101F3000001F0691FEF7CCFA00252A46714BFEF7EA
:101F400069F904460E463846FEF7C2FA0746039181
:101F5000204631462A466C4BFEF70EFA3A46039B62
:101F6000FEF758F9FEF7E2FA0699049A0746491C6B
:101F70009068012820DB0598C01E0691FEF7A8FA9C
:101F800000252A465F4BFEF745F904460E463846C3
:101F9000FEF79EFA07460391204631462A465A4BE1
:101FA000FEF7EAF93A46039BFEF734F9FEF7BEFA6C
:101FB0000699049A0746491CD068012820DB059839
:101FC000801E0691FEF784FA00252A464D4BFEF747
:101FD00021F904460E463846FEF77AFA0746039181
:101FE000204631462A46484BFEF7C6F93A46039B3F
:101FF000FEF710F9FEF79AFA0699049A0746491C6B
:102000001069012820DB0598401E0691FEF760FA52
:1020100000252A463B4BFEF7FDF804460E4638469F
:10202000FEF756FA07460391204631462A46364BBC
:10203000FEF7A2F93A46039BFEF7ECF8FEF776FAB4
:102040000699049A0746491C5069012800DB20E7DD
:10205000059B3FE7002903DD3846FEF7DBFA03E086
:102060002A480068FEF748FAFEF726FA0446284890
:1020700000682146FEF738F80546244801682046E6
:10208000FEF783F80646234801682846FEF785F8E0
:102090000746214800682146FEF77FF83946FEF7DB
:1020A00023F807461D4800683146FEF776F83946A2
:1020B000FEF71AF806461A4F38463146FEF765F81D
:1020C000FEF71AFA019A1060304639461646FEF7B6
:1020D0000BF8FEF711FA029A10600C490C600C49DB
:1020E0000D603168102903DA102806DA07B0F0BD58
:1020F0000F20306010681028F8DB0F20106007B048
:10210000F0BDC046000016C000002440B4002020EE
:10211000B0002020AC00202010002020A8002020AB
:1021200000004040B0B5451A124801680560681AC1
:10213000FEF7C2F904462846FEF7BEF901462448D8
:102140000068FEF72AF80546224800682146FEF797
:1021500024F82946FDF7C8FF0446074D2868FEF716
:10216000ABF901462046FDF7BFFFFEF7C5F9286031
:10217000B0BDC046C4002020C0002020B0B5451A24
:10218000124801680560681AFEF796F90446284669
:10219000FEF792F901460E480068FDF7FEFF05467E
:1021A0000C4800682146FDF7F8FF2946FDF79CFF23
:1021B0000446094D2868FEF77FF901462046FDF7E1
:1021C00093FFFEF799F92860B0BDC046CC002020EF
:1021D000200020201C002020C800202070B50125F0
:1021E000244C2068400301D4002013E0AE041420E6
:1021F00000F042F82068304208D02068304205D014
:102200002068304202D020683042F3D1142000F020
:1022100033F828462168090113D5ED06142000F093
:102220002BF82068284208D02068284205D0206872
:10223000284202D020682842F3D1142000F01CF874
:1022400003202168890214D501204505142000F0DF
:1022500013F82068284208D02068284205D020685A
:10226000284202D020682842F3D1142000F004F85C
:10227000022070BD80130A40B0B57D2109024143A0
:102280001E480368262206E0E41A051F2D6864191B
:10229000A2188A4210D21C460368A34208D10368E0
:1022A000A34205D10368A34202D10368A342F3D03D
:1022B0009C42E9D9E41AEBE7B0BDC046B0B50F497E
:1022C0000B684001262206E0E41A0D1F2D686419F0
:1022D000A218824210D21C460B68A34208D10B6898
:1022E000A34205D10B68A34202D10B68A342F3D0ED
:1022F0009C42E9D9E41AEBE7B0BDC04618E000E023
:1023000007490A68D20708D00A68D20705D00A68C8
:10231000D20702D00A68D207F3D1C2B28A617047ED
:1023200008911040F0B583B001AA00209080908001
:102330000190019050203D21062300F057FC002819
:1023400002D13DA001F0DAF901A841780078090234
:102350000818FEF7BDF83F221506002422462B463A
:10236000FEF70AF8374B2246FEF706F8FEF716F995
:1023700004463549FEF768F8002801D1354906E0E2
:1023800032492046FEF77CF8002804D13049204627
:10239000FDF7AAFE044601A8C17880780902081852
:1023A000FEF796F8002632462B46FDF7E5FF254B53
:1023B0003246FDF7E1FFFEF7F1F806462249FEF747
:1023C00043F8002801D1234906E020493046FEF7B2
:1023D00057F8002804D11E493046FDF785FE064611
:1023E00001A84179007909020818FEF771F8002761
:1023F0003A462B46FDF7C0FF124B3A46FDF7BCFFAD
:10240000FEF7CCF805461049FEF71EF8002801D16A
:10241000104906E00D492846FEF732F8002804D19D
:102420000B492846FDF760FE0546334804604660C8
:102430008560284603B0F0BD526561642045727224
:102440006F720D000080664000003443000034C30A
:102450000000B4430000B4C3F0B589B008AA254811
:10246000108050256921029102242846234600F05D
:1024700057FCC8263046FFF7FFFE07AA042010804D
:10248000012101912846234600F04AFC3046FFF71F
:10249000F3FE06AA0027178028463946234600F097
:1024A0003FFC3046FFF7E8FE05AA12481080284698
:1024B0000299234600F034FC3046FFF7DDFE04AA03
:1024C0000820108028460199234600F029FC304658
:1024D000FFF7D2FE03AA178028463946234600F0AC
:1024E0001FFC3046FFF7C8FE03480760476087605F
:1024F00009B0F0BD88B5FFFF7800202000B585B099
:10250000FFF7EAF9FFF7A8FFFEF780FEE048016851
:10251000012529430160FD48016829430160E80362
:10252000FB49086002220A60EB040B60AC040C60FB
:10253000F84908600A600B600C60F7480023F7490F
:10254000F74A0CC0036043608360F64809C10B6022
:102550004B608B6000952807F3490860F34CF44EFC
:10256000F44F01931EE0F448F44901600020F4495F
:1025700008602068FEF7C2FAF2480068F24909686C
:102580004942FFF7CFFDF14D2860F1480068F1495D
:1025900009684942FFF7F2FD0146EF4801602868EB
:1025A000FFF790FAFFF7BEFE2060FDF7E3FF02465B
:1025B000EAA00B4600F00EFCFFF710FEE949087098
:1025C000E94D2968022805D1481C052800D10020C2
:1025D000286017E0032803D1012901D1282010E049
:1025E000032803D1022901D11E200AE0032803D1C8
:1025F000032901D1142004E0032803D1042901D1C7
:102600000A2038602068FDF777FF0246012405277D
:10261000204621463B46FEF7A5FE2A68022004908C
:1026200021463B46FEF79EFEC94802680320039000
:10263000214602973B46FEF795FECC4800780028DD
:10264000009D07D1CA490978002907D1C94A1178E4
:10265000491C117041424141C54A11703746C64E6E
:102660003178C64A1170421E0346934133704A1EA8
:102670009141002800D129460129019B3E4603D102
:10268000BF480078002805D0BD480370BD490878D0
:10269000401C0870B06800282046A64F00DC184691
:1026A00071680029214600DC19463268002A2A4652
:1026B00000DC0A46002A294600D10146F0680028BD
:1026C000224600DC1A460029284600D1104631690E
:1026D0000029214600DC19460028284600D108467A
:1026E00071690029214600DC19460028284600D1DE
:1026F0000846B1690029214600DC19460028284611
:1027000000D10846F1690029214600DC194600285D
:10271000284600D10846316A0029214600DC1946C6
:102720000028284600D10846716A0029214600DCAD
:1027300019460028284600D10846B16A00292146DA
:1027400000DC19460028284600D10846F16A002915
:1027500000DC1C460028284600D12046834908702A
:1027600038680A28714C30D1824800788549097848
:1027700000291ED101281CD100206F490860704932
:1027800008602068FEF7BAF96E4800686E4909686B
:102790004942FFF7C7FC6D4D28606D4800686D49E0
:1027A00009684942FFF7EAFC01466B480160286866
:1027B00008E0012908D1012806D10120FB49086061
:1027C00000200146FFF77EF93868142840D1F5480B
:1027D0000078F5490978002915D1012813D1002086
:1027E000F3490860F14908602068FEF787F9F1486D
:1027F0000068F14909684942FFF794FCEF4D2860F1
:10280000E748006819E0012900D0BDE0012800D0A8
:10281000BAE00120E54908603046EB4D2946EB4F10
:102820003A46FFF725FB2868E34909684942FFF764
:1028300079FCE24D28603868D84FE149096849427F
:10284000FFF79CFC0146DF4801602868FFF73AF972
:1028500038681E2846D1D3480078D3490978002922
:1028600018D1012816D1D248DE4901600020CF4995
:1028700008602068FEF742F9CE480068CE49096832
:102880004942FFF74FFCCD4D2860C54800681DE068
:1028900004188740012900D08EE0012800D08BE089
:1028A0000120C24908603046C74D29463C46C74F03
:1028B0003A46FFF7DDFA2868BF4909684942FFF741
:1028C00031FCBE4D286038682746B34CBC490968C6
:1028D0004942FFF753FC0146BA4801602868FFF7F8
:1028E000F1F83868282800D05CE6AE480078AE4998
:1028F0000978002902D1012800D134E6012973D1D9
:10290000012871D10120A94908609DE004580840C0
:1029100080E200E000E100E0B8032020CC032020AA
:102920000000C8410000704190120A40D0002020F1
:1029300038002020240120202C01202000000CC27F
:10294000240020209800202030012020900020200A
:10295000B003202034012020940020202566202070
:102960000D0A000084002020AC0320202801202034
:10297000A8032020AA032020A2002020A1002020BC
:10298000A0002020A9032020012946D1022844D1FB
:102990008F48904901608548049901602068FFF7DD
:1029A000BFF98D480068844909684942FFF7BAFBBE
:1029B000824D2860894824E7012936D1022834D184
:1029C0008348874901607948049901602068FFF7CE
:1029D000A7F981480068784909684942FFF7A2FBD6
:1029E000764D28607D4851E7012926D1022824D15F
:1029F00077487B4901606D48049901602068FFF7C2
:102A00008FF9754800686C4909684942FFF78AFBED
:102A10006A4D28607148006826E0022931D10228F9
:102A20002FD1624803990160F6E6022935D10228C8
:102A300033D15E480399016035E7022939D1022874
:102A400037D15A480399016030465F4D29465F4FA0
:102A50003A46FFF70DFA2868574909684942FFF7D7
:102A600061FB564D28603868554909684942FFF7AF
:102A700085FB0146534801602868FFF723F8474F5C
:102A800090E5022900D0E3E6032800D0E0E6042028
:102A90004649086000200146D8E6022900D020E718
:102AA000032800D01DE704204049086000200146AB
:102AB00015E7022915D1032813D13D484A49016081
:102AC00004203A4908602068FEF718F83948006881
:102AD000394909684942FFF725FB384D28603048DD
:102AE00099E7032904D1032802D130480299AAE7C3
:102AF000032908D1042806D1354839490160062048
:102B00002A4908607AE7042903D1042801D1072063
:102B1000F9E6042906D1052804D125483249016087
:102B20000820CEE7052903D1052801D10920EAE6CE
:102B3000052906D1062804D12548294901600A2023
:102B4000DEE7062903D1062801D10B20DBE60629A2
:102B500006D1072804D11648234901600C20B0E7AC
:102B6000072903D1072801D10D20CCE6072906D17A
:102B7000082804D116481A4901600E20C0E7082928
:102B800003D1082801D10F20BDE6102007490860B5
:102B90000020014671E7C046D000202024012020FB
:102BA000B0032020AA032020A903202024002020F5
:102BB0002C0120209800202030012020900020208F
:102BC0003401202094002020B8002020BC002020C8
:102BD00008002020000033439C002020B403202064
:102BE00000000CC300000CC2000010C2F0B585B09C
:102BF0000493039200910190744881210291016035
:102C0000734C022525602564012626612560266017
:102C100005273846FFF752FB25613846FFF74EFB84
:102C200026613846FFF74AFB01984700F8B2FEF7E5
:102C3000A1FE00200190FEF77BF9002806D1009844
:102C4000FEF798FEFEF774F9002802D0019805B04F
:102C5000F0BD05200090FFF731FB5C480299016050
:102C60002560256430462646044630613560306074
:102C70000098FFF723FB35610098FFF71FFB3461D5
:102C80000098FFF71BFB00942743F8B2FEF772FE93
:102C9000FEF74EF900280198D9D104980028009A2F
:102CA0002F46039D22D1494802990160376037645D
:102CB000326137613260052420461546FFF7FEFA7F
:102CC00037602046FFF7FAFA284605B0F0BD0760E6
:102CD00025603046FFF7F2FA256127600498401E10
:102CE0002A46039D6D1C00282646DCD0049014461D
:102CF000FEF7F0FB039528703448029901603760B5
:102D00003764346125463761344605263046FFF77F
:102D1000D5FA049801282046D9D020461030D6E7AD
:102D2000F0B585B00293164603910490274881219F
:102D300000910160264802240460046401250561B5
:102D40000460056005273846FFF7B8FA204804619B
:102D50003846FFF7B3FA01951D4805613846FFF77D
:102D6000ADFA04984006000EFEF704FE0027FEF7B9
:102D7000DFF8002827D1029D04940398FEF7FAFD9E
:102D8000FEF7D6F800281ED1002D104C09D030785F
:102D9000FEF7F0FDFEF7CCF8002814D1761C6D1E6E
:102DA000F5D1009820600A4C049E26602664019F9D
:102DB00027612661276005252846FFF77FFA2660F0
:102DC0002846FFF77BFA384605B0F0BD0880424040
:102DD00090120A400FB410B503A9044B044A02989C
:102DE00000F0F0F810BC08BC04B018470123000044
:102DF000000020202021020C01D010211046020AE0
:102E000001D010460839020901D01046091F820876
:102E100001D01046891E420801D0881E7047081A4A
:102E2000704700000000000002E008C8121F08C13F
:102E3000002AFAD17047000070470000000000002F
:102E4000002001E001C1121F002AFBD170470000E1
:102E5000F0B51FB486B00998089A030D002102430B
:102E600014D05148514A181850430514119801289C
:102E700010981AD0281A401C00264D4F4D49009634
:102E800001910490002812DA444211E011980124C3
:102E900049A3012801D11098C1430698119A846072
:102EA0000360C26041600BB0F0BD4042E4E70446FD
:102EB000210500203F4A001C51410391029012E07D
:102EC000E00707D032463B4601990098FDF754FAD7
:102ED0000191009032463B4610461946FDF74CFAE8
:102EE00006460F466410002CEAD10498039B002884
:102EF000029A0999089806DAFDF73EFA019B009AB2
:102F0000FDF73AFA05E0FDF7B1FC019B009AFDF7E9
:102F1000ADFC04460E460022284BFDF73FFD03D8CA
:102F20000020C043014607E00022254B20463146E1
:102F3000FDF770F9FDF712FD102409E0002C0ADB03
:102F40000A220023FDF78EFB079B30321A55641EC0
:102F500002460A43F2D11122641C079B121B1C1962
:102F6000119B012B03D0012308430ED10AE0084333
:102F700004D0112010900020119077E71098151AB6
:102F80006D1E0BE01098824202DD00236D1C03E0F1
:102F9000824201DA00236D1E002BEED006981199B3
:102FA0008260C16030C07EE701FCFFFF104D000071
:102FB000000014400000F03F300000000000F0432B
:102FC0000000E03FFFB597B00646002518E225282F
:102FD00077D100242746FD49049400E00443761C81
:102FE00032780120203A90400842F7D130782A28E0
:102FF0000ED00222307801463039092916D80499BA
:103000000A235943303940181443761C0490F1E7E1
:10301000189802C804911890002904DA012040038E
:1030200004434842049002200443761C30782E2842
:1030300014D1042004437078761C2A2809D11898EA
:10304000761C80C8189009E00A214F43303FC71909
:10305000761C3078014630390929F5D930786C284A
:1030600010D006DC4C281AD068280ED06A2817D158
:1030700004E0742813D07A2812D110E00120400512
:1030800004430CE00121090501E0032109050C437B
:103090007178814203D1012000052418761C761C2A
:1030A0003078119066280BD013DC58287DD009DCCD
:1030B00000287BD04528F6D04628F4D047281AD1DE
:1030C000A5E118E0632835D0642870D0652812D1B6
:1030D0009DE170286CD008DC6728F1D069287BD08E
:1030E0006E280DD06F2806D1BAE073282ED075282F
:1030F00071D0782859D01A9A199990476D1C7EE1A1
:103100006002400F022809D003280DD00428189827
:1031100001680DD00D60001D189070E11898EA1735
:1031200001680D604A60F6E7189801680D80F2E7C3
:103130000D70F0E718986A4601781172001D18901A
:103140000020507202A80090012005E0189802C8E3
:10315000189000200091C04361070DD5002101E0C7
:103160000199491C0191B94212DA8142F8DB009AB7
:10317000515C0029F4D10BE0002101E00199491CC8
:1031800001918142FADB019A0099895C0029F5D10D
:10319000019904981A9B471A21463846199A00F05B
:1031A00097FA0199401945180BE04FE02CE113E024
:1031B0004EE0009800990078491C00911A9A1999DC
:1031C00090470198401E0190401CF2D1214638469C
:1031D0001A9B199A10E137E00A2000210090019112
:1031E0006002410F022907D0189A01CA1892C2172B
:1031F0009446032908D00AE01898C01DC108C900E8
:1032000005C91891944607E000B2C21794460429F4
:1032100002D140B2C1178C4600226146944506DABD
:103220000A460021404291418C462D2102E02105B1
:1032300004D52B216A461173012103E0E10701D077
:103240002021F7E7029155E00A200AE0102008E06B
:10325000102000900021042004430191082703E07E
:1032600008200021019100906002410F022907D03F
:10327000189A01CA189200229446032908D008E03F
:103280001898C01DC108C90005C91891944603E0EB
:1032900080B2042900D1C0B200210291210729D5B2
:1032A0001199702906D0009A1021019B4A401A43B7
:1032B00005D00EE040216A461173012108E0614605
:1032C000014306D030216A461173119951730221CE
:1032D0000291009A0821019B4A401A430AD1614693
:1032E000014301D1610705D530216A4611730121DF
:1032F0007F1E02911199582904D035A10E910DA974
:103300000D910DE037A1F9E76146019B009AFDF7A9
:10331000A9F90E9B8C469B5C0D9A521E0D92137060
:1033200061460143F0D10D9805A9081A203001909B
:10333000600703D501200004844300E001270198C1
:10334000874201DD381A00E0002001990090411801
:10335000029809180498401A0490E00306D4214604
:103360001A9B199A049800F0B3F94519002706E052
:1033700003A81A9AC05D199990476D1C7F1C02988A
:103380008742F5DBE0030CD521461A9B199A049875
:1033900000F09EF9451904E01A9A302019999047D7
:1033A0006D1C0099481E00900029F5DC08E00D987E
:1033B0000D990078491C0D911A9A199990476D1C26
:1033C0000199481E01900029F1DC63E10928010000
:1033D000303132333435363738396162636465668B
:1033E000000000003031323334353637383941424D
:1033F000434445460000000000F05AF94519761C88
:103400003078002800D0E2E528461BB0F0BD600708
:1034100000D406271898C01DC108C90048680A686A
:103420000831C30FDB071891190001D09CA108E0F7
:10343000210501D59BA104E0E10701D09AA100E09C
:103440009AA1430011985B08109165280CD006DC06
:10345000452809D046281DD0472841D141E066289B
:1034600018D067283CD13CE00021112F01DB11204E
:1034700000E0781C0191009008A911A8FFF7E8FC72
:10348000139905910021119A15927F1C12980197AA
:10349000009150E00120C00703900120019008A98D
:1034A000009711A8FFF7D4FC139A149905920022F3
:1034B000119B009212981593059A0192002901D050
:1034C000104602E0791C40180190381A01D5019885
:1034D00004E04042401E0090781C0190C01B029006
:1034E00043E0012F00DA01270021112F01DD112017
:1034F00000E038460191009008A911A8FFF7A8FC48
:1035000013990591119A0021129815920091019733
:1035100021070CD40599B94201DB019900E0019122
:10352000012904DD159A491E515C302906D0B842A4
:1035300001DA011D05DA0121029115E00199491E08
:10354000EDE7002805DC0099411800910199091A5E
:1035500003E0019A411C914200DD01910099401A5B
:10356000401C02900120C0070390200706D4029956
:103570000198814202DB0020C0430290002069468E
:10358000C87707AF012103980337C907884224D0C1
:10359000022011902B201290039800280CDA404250
:1035A00003902D20129007E00A210398FDF712F8EE
:1035B00030317F1E039039701199481E11900029F7
:1035C000F2DC03980028EFD1791E12980870307849
:1035D000202108404530BF1E387006A8C01BC01D02
:1035E000039010980078002800D00120019941181C
:1035F0000298C0170918039809180498401A401E29
:103600000490E00306D421461A9B199A049800F00E
:103610005FF8451910980078002803D01A9A199974
:1036200090476D1CE00324D521461A9B199A0498F3
:1036300000F04EF845191CE00098002807DB0099BF
:103640000598884203DD1598405C199901E01999A5
:1036500030201A9A904700986D1C401C00900298E8
:10366000401E0290002804D11A9A2E2019999047E2
:103670006D1C0199481E01900029DDDC05E03878B9
:103680001A9A7F1C199990476D1C0399481E039044
:103690000029F4DC21461A9B199A0498ACE6000034
:1036A0002D0000002B0000002000000000000000A2
:1036B000F8B5044600251E461746880404D405E0E4
:1036C00039462020B0476D1C641EF9D52846F8BD48
:1036D000FFB50446002581B01E46C80301D530273A
:1036E00000E02027880404D505E038460399B04758
:1036F0006D1C641EF9D5284605B0F0BD10B5044612
:1037000001E0FEF7FDFD2078641C03490028F8D194
:103710000A20FEF7F5FD10BD00002020000000008B
:10372000000000000000000000000000000000F8A1
:1037300000000000000000333000000000100C0604
:10374000100C0600000000000000000040C078409F
:10375000C0784000043F04043F040400007088FC6B
:1037600008300000001820FF211E0000F008F000C3
:10377000E018000000211C031E211E0000F0088834
:10378000700000001E2123241927211010160E009E
:10379000000000000000000000000000000000E049
:1037A000180402000000000718204000000204185E
:1037B000E00000000040201807000000404080F0BA
:1037C000804040000202010F01020200000000F0F0
:1037D000000000000101011F0101010000000000C4
:1037E0000000000080B07000000000000000000039
:1037F00000000000000101010101010100000000C2
:103800000000000000303000000000000000000058
:1038100080601804006018060100000000E0100835
:103820000810E000000F102020100F00001010F80A
:10383000000000000020203F202000000070080849
:1038400008887000003028242221300000300888C9
:10385000884830000018202020110E000000C020F1
:1038600010F8000000070424243F240000F8088812
:10387000880808000019212020110E0000E010889F
:1038800088180000000F112020110E0000380808D1
:10389000C83808000000003F0000000000708808E1
:1038A00008887000001C222121221C0000E0100862
:1038B0000810E0000000312222110F00000000C0BB
:1038C000C000000000000030300000000000008058
:1038D0000000000000008060000000000000804048
:1038E0002010080000010204081020004040404061
:1038F00040404000040404040404040000081020B4
:1039000040800000002010080402010000704808F8
:103910000808F0000000003036010000C030C82860
:10392000E810E0000718272423140B000000C0381B
:10393000E0000000203C23020227382008F8888895
:1039400088700000203F202020110E00C0300808A1
:1039500008083800071820202010080008F8080878
:103960000810E000203F202020100F0008F8888871
:10397000E8081000203F20202320180008F888883D
:10398000E8081000203F200003000000C0300808B5
:103990000838000007182020221E020008F808003E
:1039A0000008F808203F210101213F20000808F805
:1039B000080800000020203F202000000000080828
:1039C000F8080800C08080807F00000008F888C0E8
:1039D00028180800203F20012638200008F8080099
:1039E00000000000203F20202020300008F8F800D0
:1039F000F8F80800203F003F003F200008F830C0E2
:103A00000008F808203F200007183F00E0100808D1
:103A10000810E0000F10202020100F0008F8080800
:103A20000808F000203F210101010000E010080813
:103A30000810E0000F18242438504F0008F8888838
:103A400088887000203F2000030C30200070880818
:103A5000080838000038202121221C00180808F826
:103A6000080818000000203F2000000008F80800A7
:103A70000008F808001F202020201F000878880078
:103A800000C83808000007380E010000F80800F8E8
:103A90000008F800033C0700073C03000818688092
:103AA0008068180820302C03032C30200838C80008
:103AB000C83808000000203F200000001008080857
:103AC000C83808002038262120201800000000FEF9
:103AD000020202000000007F40404000000C30C0A5
:103AE00000000000000000010638C00000020202D1
:103AF000FE000000004040407F0000000000040283
:103B000002020400000000000000000000000000AD
:103B1000000000008080808080808080000202049D
:103B20000000000000000000000000000000808095
:103B3000808000000019242222223F2008F8008003
:103B400080000000003F112020110E0000000080C6
:103B500080800000000E1120202011000000008055
:103B60008088F800000E112020103F200000808087
:103B700080800000001F222222221300008080F09B
:103B8000888888180020203F2020000000008080C6
:103B900080808000006B94949493600008F800800B
:103BA00080800000203F210000203F200080989866
:103BB000000000000020203F2020000000000080C6
:103BC0009898000000C08080807F000008F8000006
:103BD00080808000203F24022D302000000808F85B
:103BE000000000000020203F202000008080808016
:103BF00080808000203F20003F20003F80800080A8
:103C000080800000203F210000203F2000008080B5
:103C100080800000001F202020201F008080008066
:103C20008000000080FFA12020110E000000008015
:103C300080808000000E112020A0FF808080800006
:103C40008080800020203F21200001000000808033
:103C5000808080000033242424241900008080E028
:103C6000808000000000001F2020000080800000F5
:103C700000808000001F202020103F2080808000D6
:103C80000080808000010E300806010080800080E6
:103C9000008080800F300C030C300F00008080000B
:103CA000808080000020312E0E3120008080800036
:103CB0000080808080818E701806010000808080E6
:103CC000808080000021302C222130000000000084
:103CD000807C020200000000003F40400000000025
:103CE000FF00000000000000FF0000000002027C56
:103CF000800000000040403F00000000000601017D
:103D0000020204040000000000000000080000009F
:103D1000800C00002001000008000000800C000062
:103D2000200100000807C700020000006300000037
:103D30000100000000000000000000000807C700AC
:103D4000020000006300000001000000000000000D
:103D50000000000004000000180000000030000017
:103D6000803D00000000202038000000282E0000C8
:103D7000B83D000038002020300C0000402E00002C
:103D8000000000006F1283390000334317B7D138A9
:103D90008FC2753D00007A44CDCC4C3D0000A0415F
:103DA00000004843FFFFFFFF6F12833917B7D13878
:083DB00000009643CDCC4C3D10
:04000005000000C136
:00000001FF
