Component: Arm Compiler for Embedded 6.22 Tool: armlink [5ee90200]

==============================================================================

Section Cross References

    empty.o(.ARM.exidx.text.PID_Init) refers to empty.o(.text.PID_Init) for [Anonymous Symbol]
    empty.o(.text.low_pass_filter) refers to fflti.o(.text) for __aeabi_i2f
    empty.o(.text.low_pass_filter) refers to fadd.o(.text) for __aeabi_fsub
    empty.o(.text.low_pass_filter) refers to fmul.o(.text) for __aeabi_fmul
    empty.o(.text.low_pass_filter) refers to ffixi.o(.text) for __aeabi_f2iz
    empty.o(.ARM.exidx.text.low_pass_filter) refers to empty.o(.text.low_pass_filter) for [Anonymous Symbol]
    empty.o(.text.PID_Compute) refers to fflti.o(.text) for __aeabi_i2f
    empty.o(.text.PID_Compute) refers to fadd.o(.text) for __aeabi_fadd
    empty.o(.text.PID_Compute) refers to fcmpgt.o(.text) for __aeabi_fcmpgt
    empty.o(.text.PID_Compute) refers to fcmplt.o(.text) for __aeabi_fcmplt
    empty.o(.text.PID_Compute) refers to fmul.o(.text) for __aeabi_fmul
    empty.o(.text.PID_Compute) refers to ffixi.o(.text) for __aeabi_f2iz
    empty.o(.ARM.exidx.text.PID_Compute) refers to empty.o(.text.PID_Compute) for [Anonymous Symbol]
    empty.o(.ARM.exidx.text.PID_Init1) refers to empty.o(.text.PID_Init1) for [Anonymous Symbol]
    empty.o(.text.low_pass_filter1) refers to fflti.o(.text) for __aeabi_i2f
    empty.o(.text.low_pass_filter1) refers to fadd.o(.text) for __aeabi_fsub
    empty.o(.text.low_pass_filter1) refers to fmul.o(.text) for __aeabi_fmul
    empty.o(.text.low_pass_filter1) refers to ffixi.o(.text) for __aeabi_f2iz
==============================================================================

Removing Unused input sections from the image.

    Removing empty.o(.text), (0 bytes).
    Removing empty.o(.text.PID_Init), (10 bytes).
    Removing empty.o(.ARM.exidx.text.PID_Init), (8 bytes).
    Removing empty.o(.text.low_pass_filter), (66 bytes).
    Removing empty.o(.ARM.exidx.text.low_pass_filter), (8 bytes).
    Removing empty.o(.text.PID_Compute), (148 bytes).
    Removing empty.o(.ARM.exidx.text.PID_Compute), (8 bytes).
    Removing empty.o(.text.PID_Init1), (10 bytes).
    Removing empty.o(.ARM.exidx.text.PID_Init1), (8 bytes).
    Removing empty.o(.text.low_pass_filter1), (66 bytes).
    Removing empty.o(.ARM.exidx.text.low_pass_filter1), (8 bytes).
    Removing empty.o(.text.PID_Compute1), (152 bytes).
    Removing empty.o(.ARM.exidx.text.PID_Compute1), (8 bytes).
    Removing empty.o(.text.ClampYaw), (48 bytes).
    Removing empty.o(.ARM.exidx.text.ClampYaw), (8 bytes).
    Removing empty.o(.text.SmoothYaw), (42 bytes).
    Removing empty.o(.ARM.exidx.text.SmoothYaw), (8 bytes).
    Removing empty.o(.text.CustomAbs), (8 bytes).
==============================================================================

Image Symbol Table

    Local Symbols

    Symbol Name                              Value     Ov Type        Size  Object(Section)

    ../clib/division.s                       0x00000000   Number         0  aeabi_sdivfast.o ABSOLUTE
    ../clib/division.s                       0x00000000   Number         0  aeabi_sdivfast_div0.o ABSOLUTE
    ../clib/microlib/division.c              0x00000000   Number         0  uidiv.o ABSOLUTE
    ../clib/microlib/division.c              0x00000000   Number         0  idiv.o ABSOLUTE
    ../clib/microlib/division.c              0x00000000   Number         0  uidiv_div0.o ABSOLUTE
    ../clib/microlib/division.c              0x00000000   Number         0  idiv_div0.o ABSOLUTE
    ../clib/microlib/division.c              0x00000000   Number         0  idiv0.o ABSOLUTE
    ../clib/microlib/division.c              0x00000000   Number         0  uldiv.o ABSOLUTE
    ../clib/microlib/init/entry.s            0x00000000   Number         0  entry.o ABSOLUTE
    ../clib/microlib/init/entry.s            0x00000000   Number         0  entry2.o ABSOLUTE
    ../clib/microlib/init/entry.s            0x00000000   Number         0  entry5.o ABSOLUTE
    ../clib/microlib/init/entry.s            0x00000000   Number         0  entry7a.o ABSOLUTE
    ../clib/microlib/init/entry.s            0x00000000   Number         0  entry7b.o ABSOLUTE
    ../clib/microlib/init/entry.s            0x00000000   Number         0  entry8a.o ABSOLUTE
    ../clib/microlib/init/entry.s            0x00000000   Number         0  entry8b.o ABSOLUTE
    ../clib/microlib/init/entry.s            0x00000000   Number         0  entry9a.o ABSOLUTE
    ../clib/microlib/init/entry.s            0x00000000   Number         0  entry9b.o ABSOLUTE
    ../clib/microlib/init/entry.s            0x00000000   Number         0  entry10a.o ABSOLUTE
    ../clib/microlib/init/entry.s            0x00000000   Number         0  entry10b.o ABSOLUTE
    ../clib/microlib/init/entry.s            0x00000000   Number         0  entry11a.o ABSOLUTE
    ../clib/microlib/init/entry.s            0x00000000   Number         0  entry11b.o ABSOLUTE
    ../clib/microlib/longlong.c              0x00000000   Number         0  llshl.o ABSOLUTE
    ../clib/microlib/longlong.c              0x00000000   Number         0  llushr.o ABSOLUTE
    ../clib/microlib/longlong.c              0x00000000   Number         0  llsshr.o ABSOLUTE
    ../clib/microlib/printf/printf.c         0x00000000   Number         0  printfb.o ABSOLUTE
    ../clib/microlib/printf/printf.c         0x00000000   Number         0  printf0.o ABSOLUTE
    ../clib/microlib/printf/printf.c         0x00000000   Number         0  printf1.o ABSOLUTE
    ../clib/microlib/printf/printf.c         0x00000000   Number         0  printf2.o ABSOLUTE
    ../clib/microlib/printf/printf.c         0x00000000   Number         0  printf3.o ABSOLUTE
    ../clib/microlib/printf/printf.c         0x00000000   Number         0  printf4.o ABSOLUTE
    ../clib/microlib/printf/printf.c         0x00000000   Number         0  printf5.o ABSOLUTE
    ../clib/microlib/printf/printf.c         0x00000000   Number         0  printf6.o ABSOLUTE
    ../clib/microlib/printf/printf.c         0x00000000   Number         0  printf7.o ABSOLUTE
    ../clib/microlib/printf/printf.c         0x00000000   Number         0  printf8.o ABSOLUTE
    ../clib/microlib/printf/printf.c         0x00000000   Number         0  printfa.o ABSOLUTE
    ../clib/microlib/printf/stubs.s          0x00000000   Number         0  printfstubs.o ABSOLUTE
    ../clib/microlib/stdio/puts.c            0x00000000   Number         0  puts.o ABSOLUTE
    ../clib/microlib/stdio/puts.c            0x00000000   Number         0  puts_e.o ABSOLUTE
    ../clib/microlib/stdio/streams.c         0x00000000   Number         0  stdout.o ABSOLUTE
    ../clib/microlib/stubs.s                 0x00000000   Number         0  iusefp.o ABSOLUTE
    ../fplib/microlib/d2f.c                  0x00000000   Number         0  d2f.o ABSOLUTE
    ../fplib/microlib/f2d.c                  0x00000000   Number         0  f2d.o ABSOLUTE
    ../fplib/microlib/fpadd.c                0x00000000   Number         0  fadd.o ABSOLUTE
    ../fplib/microlib/fpadd.c                0x00000000   Number         0  dadd.o ABSOLUTE
    ../fplib/microlib/fpcmp.c                0x00000000   Number         0  fcmple.o ABSOLUTE
    ../fplib/microlib/fpcmp.c                0x00000000   Number         0  fcmplt.o ABSOLUTE
    ../fplib/microlib/fpcmp.c                0x00000000   Number         0  fcmpge.o ABSOLUTE
    ../fplib/microlib/fpcmp.c                0x00000000   Number         0  fcmpgt.o ABSOLUTE
    ../fplib/microlib/fpdiv.c                0x00000000   Number         0  ddiv.o ABSOLUTE
    ../fplib/microlib/fpepilogue.c           0x00000000   Number         0  fepilogue.o ABSOLUTE
    ../fplib/microlib/fpepilogue.c           0x00000000   Number         0  depilogue.o ABSOLUTE
    ../fplib/microlib/fpfix.c                0x00000000   Number         0  ffixi.o ABSOLUTE
    ../fplib/microlib/fpfix.c                0x00000000   Number         0  dfixi.o ABSOLUTE
    ../fplib/microlib/fpfix.c                0x00000000   Number         0  dfixul.o ABSOLUTE
    ../fplib/microlib/fpflt.c                0x00000000   Number         0  fflti.o ABSOLUTE
    ../fplib/microlib/fpflt.c                0x00000000   Number         0  dflti.o ABSOLUTE
    ../fplib/microlib/fpmul.c                0x00000000   Number         0  fmul.o ABSOLUTE
    ../fplib/microlib/fpmul.c                0x00000000   Number         0  dmul.o ABSOLUTE
    CX.c                                     0x00000000   Number         0  cx.o ABSOLUTE
    OLED.c                                   0x00000000   Number         0  oled.o ABSOLUTE
    board.c                                  0x00000000   Number         0  board.o ABSOLUTE
    bsp_gyro.c                               0x00000000   Number         0  bsp_gyro.o ABSOLUTE
    cdrcmple.s                               0x00000000   Number         0  cdrcmple.o ABSOLUTE
    dc.s                                     0x00000000   Number         0  dc.o ABSOLUTE
    dl_adc12.c                               0x00000000   Number         0  dl_adc12.o ABSOLUTE
    dl_aes.c                                 0x00000000   Number         0  dl_aes.o ABSOLUTE
    dl_aesadv.c                              0x00000000   Number         0  dl_aesadv.o ABSOLUTE
    dl_common.c                              0x00000000   Number         0  dl_common.o ABSOLUTE
    dl_crc.c                                 0x00000000   Number         0  dl_crc.o ABSOLUTE
    dl_crcp.c                                0x00000000   Number         0  dl_crcp.o ABSOLUTE
    dl_dac12.c                               0x00000000   Number         0  dl_dac12.o ABSOLUTE
    dl_dma.c                                 0x00000000   Number         0  dl_dma.o ABSOLUTE
    dl_flashctl.c                            0x00000000   Number         0  dl_flashctl.o ABSOLUTE
    dl_i2c.c                                 0x00000000   Number         0  dl_i2c.o ABSOLUTE
    dl_interrupt.c                           0x00000000   Number         0  dl_interrupt.o ABSOLUTE
    dl_keystorectl.c                         0x00000000   Number         0  dl_keystorectl.o ABSOLUTE
    dl_lcd.c                                 0x00000000   Number         0  dl_lcd.o ABSOLUTE
    dl_lfss.c                                0x00000000   Number         0  dl_lfss.o ABSOLUTE
    dl_mathacl.c                             0x00000000   Number         0  dl_mathacl.o ABSOLUTE
    dl_mcan.c                                0x00000000   Number         0  dl_mcan.o ABSOLUTE
    dl_opa.c                                 0x00000000   Number         0  dl_opa.o ABSOLUTE
    dl_rtc_common.c                          0x00000000   Number         0  dl_rtc_common.o ABSOLUTE
    dl_spi.c                                 0x00000000   Number         0  dl_spi.o ABSOLUTE
    dl_timer.c                               0x00000000   Number         0  dl_timer.o ABSOLUTE
    dl_trng.c                                0x00000000   Number         0  dl_trng.o ABSOLUTE
    dl_uart.c                                0x00000000   Number         0  dl_uart.o ABSOLUTE
    dl_vref.c                                0x00000000   Number         0  dl_vref.o ABSOLUTE
    empty.c                                  0x00000000   Number         0  empty.o ABSOLUTE
    encoder.c                                0x00000000   Number         0  encoder.o ABSOLUTE
    handlers.s                               0x00000000   Number         0  handlers.o ABSOLUTE
    init.s                                   0x00000000   Number         0  init.o ABSOLUTE
    key.c                                    0x00000000   Number         0  key.o ABSOLUTE
    led.c                                    0x00000000   Number         0  led.o ABSOLUTE
    motor.c                                  0x00000000   Number         0  motor.o ABSOLUTE
    startup_mspm0g350x_uvision.s             0x00000000   Number         0  startup_mspm0g350x_uvision.o ABSOLUTE
    ti_msp_dl_config.c                       0x00000000   Number         0  ti_msp_dl_config.o ABSOLUTE
    RESET                                    0x00000000   Section      192  startup_mspm0g350x_uvision.o(RESET)
    .ARM.Collect$$$$00000000                 0x000000c0   Section        0  entry.o(.ARM.Collect$$$$00000000)
    .ARM.Collect$$$$00000001                 0x000000c0   Section        4  entry2.o(.ARM.Collect$$$$00000001)
    .ARM.Collect$$$$00000004                 0x000000c4   Section        4  entry5.o(.ARM.Collect$$$$00000004)
    .ARM.Collect$$$$00000008                 0x000000c8   Section        0  entry7b.o(.ARM.Collect$$$$00000008)
    .ARM.Collect$$$$0000000A                 0x000000c8   Section        0  entry8b.o(.ARM.Collect$$$$0000000A)
    .ARM.Collect$$$$0000000B                 0x000000c8   Section        8  entry9a.o(.ARM.Collect$$$$0000000B)
    __lit__00000000                          0x000000d0   Data           4  entry2.o(.ARM.Collect$$$$00002712)
    .ARM.Collect$$$$0000000D                 0x000000d0   Section        0  entry10a.o(.ARM.Collect$$$$0000000D)
    .ARM.Collect$$$$0000000F                 0x000000d0   Section        0  entry11a.o(.ARM.Collect$$$$0000000F)
    .ARM.Collect$$$$00002712                 0x000000d0   Section        4  entry2.o(.ARM.Collect$$$$00002712)
    .text                                    0x000000d4   Section       20  startup_mspm0g350x_uvision.o(.text)
    .text                                    0x000000e8   Section        0  fadd.o(.text)
    .text                                    0x0000019a   Section        0  fmul.o(.text)
    .text                                    0x00000214   Section        0  dadd.o(.text)
    .text                                    0x00000378   Section        0  dmul.o(.text)
    .text                                    0x00000448   Section        0  fcmple.o(.text)
    .text                                    0x00000464   Section        0  fcmplt.o(.text)
    .text                                    0x00000480   Section        0  fcmpge.o(.text)
    .text                                    0x0000049c   Section        0  fcmpgt.o(.text)
    .text                                    0x000004b8   Section        0  fflti.o(.text)
    .text                                    0x000004d0   Section        0  dflti.o(.text)
    .text                                    0x000004f8   Section        0  ffixi.o(.text)
    .text                                    0x0000052c   Section        0  dfixi.o(.text)
    .text                                    0x00000574   Section        0  f2d.o(.text)
    .text                                    0x0000059c   Section        0  d2f.o(.text)
    .text                                    0x000005d4   Section        0  uidiv_div0.o(.text)
    .text                                    0x00000614   Section        0  idiv_div0.o(.text)
    .text                                    0x00000664   Section        0  uldiv.o(.text)
    .text                                    0x000006c4   Section        0  llshl.o(.text)
    .text                                    0x000006e4   Section        0  llushr.o(.text)
    .text                                    0x00000706   Section        0  llsshr.o(.text)
    .text                                    0x0000072c   Section        0  iusefp.o(.text)
    .text                                    0x0000072c   Section        0  fepilogue.o(.text)
    .text                                    0x000007ae   Section        0  depilogue.o(.text)
    .text                                    0x0000086c   Section        0  ddiv.o(.text)
    .text                                    0x0000095c   Section        0  dfixul.o(.text)
    .text                                    0x0000099c   Section       40  cdrcmple.o(.text)
    .text                                    0x000009c8   Section       48  init.o(.text)
    [Anonymous Symbol]                       0x000009f8   Section        0  cx.o(.text.CX_INIT)
    __arm_cp.0_0                             0x00000af0   Number         4  cx.o(.text.CX_INIT)
    __arm_cp.0_1                             0x00000af4   Number         4  cx.o(.text.CX_INIT)
    __arm_cp.0_2                             0x00000af8   Number         4  cx.o(.text.CX_INIT)
    [Anonymous Symbol]                       0x00000afc   Section        0  empty.o(.text.CustomPIDControl)
    __arm_cp.9_0                             0x00000bd8   Number         4  empty.o(.text.CustomPIDControl)
    __arm_cp.9_1                             0x00000bdc   Number         4  empty.o(.text.CustomPIDControl)
    __arm_cp.9_2                             0x00000be0   Number         4  empty.o(.text.CustomPIDControl)
    __arm_cp.9_3                             0x00000be4   Number         4  empty.o(.text.CustomPIDControl)
    __arm_cp.9_4                             0x00000be8   Number         4  empty.o(.text.CustomPIDControl)
    __arm_cp.9_6                             0x00000bf4   Number         4  empty.o(.text.CustomPIDControl)
    __arm_cp.9_7                             0x00000bf8   Number         4  empty.o(.text.CustomPIDControl)
    __arm_cp.9_8                             0x00000bfc   Number         4  empty.o(.text.CustomPIDControl)
    __arm_cp.9_9                             0x00000c00   Number         4  empty.o(.text.CustomPIDControl)
    __arm_cp.9_10                            0x00000c04   Number         4  empty.o(.text.CustomPIDControl)
    __arm_cp.9_11                            0x00000c08   Number         4  empty.o(.text.CustomPIDControl)
    __arm_cp.9_12                            0x00000c0c   Number         4  empty.o(.text.CustomPIDControl)
    __arm_cp.9_13                            0x00000c10   Number         4  empty.o(.text.CustomPIDControl)
    __arm_cp.9_14                            0x00000c14   Number         4  empty.o(.text.CustomPIDControl)
    [Anonymous Symbol]                       0x00000c18   Section        0  dl_common.o(.text.DL_Common_delayCycles)
    [Anonymous Symbol]                       0x00000c24   Section        0  dl_timer.o(.text.DL_Timer_initPWMMode)
    __arm_cp.11_0                            0x00000ce0   Number         4  dl_timer.o(.text.DL_Timer_initPWMMode)
    __arm_cp.11_4                            0x00000ce4   Number         4  dl_timer.o(.text.DL_Timer_initPWMMode)
    __arm_cp.11_5                            0x00000ce8   Number         4  dl_timer.o(.text.DL_Timer_initPWMMode)
    __arm_cp.11_6                            0x00000cec   Number         4  dl_timer.o(.text.DL_Timer_initPWMMode)
    __arm_cp.11_7                            0x00000cf0   Number         4  dl_timer.o(.text.DL_Timer_initPWMMode)
    __arm_cp.11_9                            0x00000cf4   Number         4  dl_timer.o(.text.DL_Timer_initPWMMode)
    [Anonymous Symbol]                       0x00000cf8   Section        0  dl_timer.o(.text.DL_Timer_initTimerMode)
    __arm_cp.2_0                             0x00000dd8   Number         4  dl_timer.o(.text.DL_Timer_initTimerMode)
    __arm_cp.2_2                             0x00000ddc   Number         4  dl_timer.o(.text.DL_Timer_initTimerMode)
    __arm_cp.2_3                             0x00000de0   Number         4  dl_timer.o(.text.DL_Timer_initTimerMode)
    [Anonymous Symbol]                       0x00000de4   Section        0  dl_timer.o(.text.DL_Timer_setCaptCompUpdateMethod)
    __arm_cp.18_0                            0x00000dfc   Number         4  dl_timer.o(.text.DL_Timer_setCaptCompUpdateMethod)
    [Anonymous Symbol]                       0x00000e00   Section        0  dl_timer.o(.text.DL_Timer_setCaptureCompareOutCtl)
    __arm_cp.13_0                            0x00000e14   Number         4  dl_timer.o(.text.DL_Timer_setCaptureCompareOutCtl)
    [Anonymous Symbol]                       0x00000e18   Section        0  dl_timer.o(.text.DL_Timer_setCaptureCompareValue)
    __arm_cp.3_0                             0x00000e24   Number         4  dl_timer.o(.text.DL_Timer_setCaptureCompareValue)
    [Anonymous Symbol]                       0x00000e28   Section        0  dl_timer.o(.text.DL_Timer_setClockConfig)
    __arm_cp.0_0                             0x00000e40   Number         4  dl_timer.o(.text.DL_Timer_setClockConfig)
    [Anonymous Symbol]                       0x00000e44   Section        0  dl_uart.o(.text.DL_UART_init)
    __arm_cp.0_0                             0x00000e84   Number         4  dl_uart.o(.text.DL_UART_init)
    __arm_cp.0_1                             0x00000e88   Number         4  dl_uart.o(.text.DL_UART_init)
    [Anonymous Symbol]                       0x00000e8c   Section        0  dl_uart.o(.text.DL_UART_setClockConfig)
    [Anonymous Symbol]                       0x00000ea0   Section        0  encoder.o(.text.GROUP1_IRQHandler)
    __arm_cp.0_0                             0x00000f20   Number         4  encoder.o(.text.GROUP1_IRQHandler)
    __arm_cp.0_1                             0x00000f24   Number         4  encoder.o(.text.GROUP1_IRQHandler)
    __arm_cp.0_3                             0x00000f28   Number         4  encoder.o(.text.GROUP1_IRQHandler)
    __arm_cp.0_4                             0x00000f2c   Number         4  encoder.o(.text.GROUP1_IRQHandler)
    [Anonymous Symbol]                       0x00000f30   Section        0  bsp_gyro.o(.text.I2C_WaitAck)
    __arm_cp.5_0                             0x00000fa4   Number         4  bsp_gyro.o(.text.I2C_WaitAck)
    __arm_cp.5_1                             0x00000fa8   Number         4  bsp_gyro.o(.text.I2C_WaitAck)
    __arm_cp.5_3                             0x00000fac   Number         4  bsp_gyro.o(.text.I2C_WaitAck)
    [Anonymous Symbol]                       0x00000fb0   Section        0  oled.o(.text.OLED_Clear)
    [Anonymous Symbol]                       0x000010c4   Section        0  oled.o(.text.OLED_I2C_SendByte)
    __arm_cp.5_0                             0x00001208   Number         4  oled.o(.text.OLED_I2C_SendByte)
    [Anonymous Symbol]                       0x0000120c   Section        0  oled.o(.text.OLED_Init)
    [Anonymous Symbol]                       0x000012a0   Section        0  oled.o(.text.OLED_ShowChar)
    __arm_cp.10_0                            0x0000135c   Number         4  oled.o(.text.OLED_ShowChar)
    __arm_cp.10_1                            0x00001360   Number         4  oled.o(.text.OLED_ShowChar)
    [Anonymous Symbol]                       0x00001364   Section        0  oled.o(.text.OLED_ShowSignedNum)
    __arm_cp.14_0                            0x00001414   Number         4  oled.o(.text.OLED_ShowSignedNum)
    [Anonymous Symbol]                       0x00001418   Section        0  oled.o(.text.OLED_WriteCommand)
    __arm_cp.6_0                             0x00001474   Number         4  oled.o(.text.OLED_WriteCommand)
    [Anonymous Symbol]                       0x00001478   Section        0  oled.o(.text.OLED_WriteData)
    [Anonymous Symbol]                       0x000014d4   Section        0  bsp_gyro.o(.text.Read_Byte)
    __arm_cp.7_0                             0x000015fc   Number         4  bsp_gyro.o(.text.Read_Byte)
    __arm_cp.7_2                             0x00001600   Number         4  bsp_gyro.o(.text.Read_Byte)
    __arm_cp.7_3                             0x00001604   Number         4  bsp_gyro.o(.text.Read_Byte)
    [Anonymous Symbol]                       0x00001608   Section        0  ti_msp_dl_config.o(.text.SYSCFG_DL_GPIO_init)
    __arm_cp.2_0                             0x000016b0   Number         4  ti_msp_dl_config.o(.text.SYSCFG_DL_GPIO_init)
    __arm_cp.2_1                             0x000016b4   Number         4  ti_msp_dl_config.o(.text.SYSCFG_DL_GPIO_init)
    __arm_cp.2_2                             0x000016b8   Number         4  ti_msp_dl_config.o(.text.SYSCFG_DL_GPIO_init)
    __arm_cp.2_3                             0x000016bc   Number         4  ti_msp_dl_config.o(.text.SYSCFG_DL_GPIO_init)
    __arm_cp.2_4                             0x000016c0   Number         4  ti_msp_dl_config.o(.text.SYSCFG_DL_GPIO_init)
    __arm_cp.2_5                             0x000016c4   Number         4  ti_msp_dl_config.o(.text.SYSCFG_DL_GPIO_init)
    __arm_cp.2_6                             0x000016c8   Number         4  ti_msp_dl_config.o(.text.SYSCFG_DL_GPIO_init)
    __arm_cp.2_7                             0x000016cc   Number         4  ti_msp_dl_config.o(.text.SYSCFG_DL_GPIO_init)
    __arm_cp.2_8                             0x000016d0   Number         4  ti_msp_dl_config.o(.text.SYSCFG_DL_GPIO_init)
    __arm_cp.2_9                             0x000016d4   Number         4  ti_msp_dl_config.o(.text.SYSCFG_DL_GPIO_init)
    __arm_cp.2_10                            0x000016d8   Number         4  ti_msp_dl_config.o(.text.SYSCFG_DL_GPIO_init)
    __arm_cp.2_11                            0x000016dc   Number         4  ti_msp_dl_config.o(.text.SYSCFG_DL_GPIO_init)
    __arm_cp.2_12                            0x000016e0   Number         4  ti_msp_dl_config.o(.text.SYSCFG_DL_GPIO_init)
    [Anonymous Symbol]                       0x000016e4   Section        0  ti_msp_dl_config.o(.text.SYSCFG_DL_PWM_0_init)
    __arm_cp.4_0                             0x0000172c   Number         4  ti_msp_dl_config.o(.text.SYSCFG_DL_PWM_0_init)
    __arm_cp.4_1                             0x00001730   Number         4  ti_msp_dl_config.o(.text.SYSCFG_DL_PWM_0_init)
    __arm_cp.4_2                             0x00001734   Number         4  ti_msp_dl_config.o(.text.SYSCFG_DL_PWM_0_init)
    __arm_cp.4_3                             0x00001738   Number         4  ti_msp_dl_config.o(.text.SYSCFG_DL_PWM_0_init)
    [Anonymous Symbol]                       0x0000173c   Section        0  ti_msp_dl_config.o(.text.SYSCFG_DL_PWM_1_init)
    __arm_cp.5_1                             0x00001784   Number         4  ti_msp_dl_config.o(.text.SYSCFG_DL_PWM_1_init)
    __arm_cp.5_2                             0x00001788   Number         4  ti_msp_dl_config.o(.text.SYSCFG_DL_PWM_1_init)
    __arm_cp.5_3                             0x0000178c   Number         4  ti_msp_dl_config.o(.text.SYSCFG_DL_PWM_1_init)
    [Anonymous Symbol]                       0x00001790   Section        0  ti_msp_dl_config.o(.text.SYSCFG_DL_SYSCTL_init)
    __arm_cp.3_0                             0x000017d0   Number         4  ti_msp_dl_config.o(.text.SYSCFG_DL_SYSCTL_init)
    __arm_cp.3_1                             0x000017d4   Number         4  ti_msp_dl_config.o(.text.SYSCFG_DL_SYSCTL_init)
    __arm_cp.3_2                             0x000017d8   Number         4  ti_msp_dl_config.o(.text.SYSCFG_DL_SYSCTL_init)
    [Anonymous Symbol]                       0x000017dc   Section        0  ti_msp_dl_config.o(.text.SYSCFG_DL_SYSTICK_init)
    __arm_cp.9_0                             0x000017f4   Number         4  ti_msp_dl_config.o(.text.SYSCFG_DL_SYSTICK_init)
    [Anonymous Symbol]                       0x000017f8   Section        0  ti_msp_dl_config.o(.text.SYSCFG_DL_TIMER_0_init)
    __arm_cp.6_0                             0x0000181c   Number         4  ti_msp_dl_config.o(.text.SYSCFG_DL_TIMER_0_init)
    __arm_cp.6_1                             0x00001820   Number         4  ti_msp_dl_config.o(.text.SYSCFG_DL_TIMER_0_init)
    __arm_cp.6_2                             0x00001824   Number         4  ti_msp_dl_config.o(.text.SYSCFG_DL_TIMER_0_init)
    __arm_cp.6_3                             0x00001828   Number         4  ti_msp_dl_config.o(.text.SYSCFG_DL_TIMER_0_init)
    __arm_cp.6_4                             0x0000182c   Number         4  ti_msp_dl_config.o(.text.SYSCFG_DL_TIMER_0_init)
    [Anonymous Symbol]                       0x00001830   Section        0  ti_msp_dl_config.o(.text.SYSCFG_DL_TIMER_1_init)
    __arm_cp.7_0                             0x00001854   Number         4  ti_msp_dl_config.o(.text.SYSCFG_DL_TIMER_1_init)
    __arm_cp.7_1                             0x00001858   Number         4  ti_msp_dl_config.o(.text.SYSCFG_DL_TIMER_1_init)
    __arm_cp.7_2                             0x0000185c   Number         4  ti_msp_dl_config.o(.text.SYSCFG_DL_TIMER_1_init)
    __arm_cp.7_3                             0x00001860   Number         4  ti_msp_dl_config.o(.text.SYSCFG_DL_TIMER_1_init)
    __arm_cp.7_4                             0x00001864   Number         4  ti_msp_dl_config.o(.text.SYSCFG_DL_TIMER_1_init)
    [Anonymous Symbol]                       0x00001868   Section        0  ti_msp_dl_config.o(.text.SYSCFG_DL_UART_0_init)
    __arm_cp.8_0                             0x000018c0   Number         4  ti_msp_dl_config.o(.text.SYSCFG_DL_UART_0_init)
    __arm_cp.8_1                             0x000018c4   Number         4  ti_msp_dl_config.o(.text.SYSCFG_DL_UART_0_init)
    __arm_cp.8_2                             0x000018c8   Number         4  ti_msp_dl_config.o(.text.SYSCFG_DL_UART_0_init)
    __arm_cp.8_3                             0x000018cc   Number         4  ti_msp_dl_config.o(.text.SYSCFG_DL_UART_0_init)
    __arm_cp.8_4                             0x000018d0   Number         4  ti_msp_dl_config.o(.text.SYSCFG_DL_UART_0_init)
    __arm_cp.8_5                             0x000018d4   Number         4  ti_msp_dl_config.o(.text.SYSCFG_DL_UART_0_init)
    [Anonymous Symbol]                       0x000018d8   Section        0  ti_msp_dl_config.o(.text.SYSCFG_DL_init)
    __arm_cp.0_0                             0x0000190c   Number         4  ti_msp_dl_config.o(.text.SYSCFG_DL_init)
    __arm_cp.0_1                             0x00001910   Number         4  ti_msp_dl_config.o(.text.SYSCFG_DL_init)
    [Anonymous Symbol]                       0x00001914   Section        0  ti_msp_dl_config.o(.text.SYSCFG_DL_initPower)
    __arm_cp.1_0                             0x00001950   Number         4  ti_msp_dl_config.o(.text.SYSCFG_DL_initPower)
    __arm_cp.1_1                             0x00001954   Number         4  ti_msp_dl_config.o(.text.SYSCFG_DL_initPower)
    __arm_cp.1_2                             0x00001958   Number         4  ti_msp_dl_config.o(.text.SYSCFG_DL_initPower)
    __arm_cp.1_3                             0x0000195c   Number         4  ti_msp_dl_config.o(.text.SYSCFG_DL_initPower)
    __arm_cp.1_4                             0x00001960   Number         4  ti_msp_dl_config.o(.text.SYSCFG_DL_initPower)
    __arm_cp.1_5                             0x00001964   Number         4  ti_msp_dl_config.o(.text.SYSCFG_DL_initPower)
    __arm_cp.1_6                             0x00001968   Number         4  ti_msp_dl_config.o(.text.SYSCFG_DL_initPower)
    __arm_cp.1_7                             0x0000196c   Number         4  ti_msp_dl_config.o(.text.SYSCFG_DL_initPower)
    __arm_cp.1_8                             0x00001970   Number         4  ti_msp_dl_config.o(.text.SYSCFG_DL_initPower)
    [Anonymous Symbol]                       0x00001974   Section        0  bsp_gyro.o(.text.Send_Byte)
    __arm_cp.6_0                             0x00001ac0   Number         4  bsp_gyro.o(.text.Send_Byte)
    [Anonymous Symbol]                       0x00001ac4   Section        0  motor.o(.text.Set_PWM)
    __arm_cp.2_1                             0x00001b0c   Number         4  motor.o(.text.Set_PWM)
    __arm_cp.2_2                             0x00001b10   Number         4  motor.o(.text.Set_PWM)
    __arm_cp.2_3                             0x00001b14   Number         4  motor.o(.text.Set_PWM)
    [Anonymous Symbol]                       0x00001b18   Section        0  empty.o(.text.TIMA0_IRQHandler)
    __arm_cp.21_0                            0x00001c80   Number         4  empty.o(.text.TIMA0_IRQHandler)
    __arm_cp.21_1                            0x00001c84   Number         4  empty.o(.text.TIMA0_IRQHandler)
    __arm_cp.21_2                            0x00001c88   Number         4  empty.o(.text.TIMA0_IRQHandler)
    __arm_cp.21_3                            0x00001c8c   Number         4  empty.o(.text.TIMA0_IRQHandler)
    __arm_cp.21_4                            0x00001c90   Number         4  empty.o(.text.TIMA0_IRQHandler)
    __arm_cp.21_5                            0x00001c94   Number         4  empty.o(.text.TIMA0_IRQHandler)
    __arm_cp.21_6                            0x00001c98   Number         4  empty.o(.text.TIMA0_IRQHandler)
    __arm_cp.21_7                            0x00001c9c   Number         4  empty.o(.text.TIMA0_IRQHandler)
    __arm_cp.21_8                            0x00001ca0   Number         4  empty.o(.text.TIMA0_IRQHandler)
    __arm_cp.21_9                            0x00001ca4   Number         4  empty.o(.text.TIMA0_IRQHandler)
    __arm_cp.21_10                           0x00001ca8   Number         4  empty.o(.text.TIMA0_IRQHandler)
    [Anonymous Symbol]                       0x00001cac   Section        0  empty.o(.text.TIMA1_IRQHandler)
    __arm_cp.20_0                            0x00001cbc   Number         4  empty.o(.text.TIMA1_IRQHandler)
    [Anonymous Symbol]                       0x00001cc0   Section        0  board.o(.text.UART0_IRQHandler)
    __arm_cp.7_0                             0x00001d0c   Number         4  board.o(.text.UART0_IRQHandler)
    __arm_cp.7_1                             0x00001d10   Number         4  board.o(.text.UART0_IRQHandler)
    __arm_cp.7_2                             0x00001d14   Number         4  board.o(.text.UART0_IRQHandler)
    __arm_cp.7_3                             0x00001d18   Number         4  board.o(.text.UART0_IRQHandler)
    __arm_cp.7_4                             0x00001d1c   Number         4  board.o(.text.UART0_IRQHandler)
    [Anonymous Symbol]                       0x00001d20   Section        0  empty.o(.text.UU_CustomPIDControl)
    __arm_cp.13_0                            0x00001e48   Number         4  empty.o(.text.UU_CustomPIDControl)
    __arm_cp.13_1                            0x00001e4c   Number         4  empty.o(.text.UU_CustomPIDControl)
    __arm_cp.13_2                            0x00001e50   Number         4  empty.o(.text.UU_CustomPIDControl)
    __arm_cp.13_3                            0x00001e54   Number         4  empty.o(.text.UU_CustomPIDControl)
    __arm_cp.13_4                            0x00001e58   Number         4  empty.o(.text.UU_CustomPIDControl)
    __arm_cp.13_5                            0x00001e5c   Number         4  empty.o(.text.UU_CustomPIDControl)
    __arm_cp.13_6                            0x00001e60   Number         4  empty.o(.text.UU_CustomPIDControl)
    __arm_cp.13_7                            0x00001e64   Number         4  empty.o(.text.UU_CustomPIDControl)
    __arm_cp.13_8                            0x00001e68   Number         4  empty.o(.text.UU_CustomPIDControl)
    __arm_cp.13_9                            0x00001e6c   Number         4  empty.o(.text.UU_CustomPIDControl)
    [Anonymous Symbol]                       0x00001e70   Section        0  empty.o(.text.UU_PIDControl)
    __arm_cp.15_0                            0x00002104   Number         4  empty.o(.text.UU_PIDControl)
    __arm_cp.15_1                            0x00002108   Number         4  empty.o(.text.UU_PIDControl)
    __arm_cp.15_2                            0x0000210c   Number         4  empty.o(.text.UU_PIDControl)
    __arm_cp.15_3                            0x00002110   Number         4  empty.o(.text.UU_PIDControl)
    __arm_cp.15_4                            0x00002114   Number         4  empty.o(.text.UU_PIDControl)
    __arm_cp.15_5                            0x00002118   Number         4  empty.o(.text.UU_PIDControl)
    __arm_cp.15_6                            0x0000211c   Number         4  empty.o(.text.UU_PIDControl)
    __arm_cp.15_7                            0x00002120   Number         4  empty.o(.text.UU_PIDControl)
    [Anonymous Symbol]                       0x00002124   Section        0  motor.o(.text.Velocity_A)
    __arm_cp.0_0                             0x00002174   Number         4  motor.o(.text.Velocity_A)
    __arm_cp.0_3                             0x00002178   Number         4  motor.o(.text.Velocity_A)
    [Anonymous Symbol]                       0x0000217c   Section        0  motor.o(.text.Velocity_B)
    __arm_cp.1_0                             0x000021cc   Number         4  motor.o(.text.Velocity_B)
    __arm_cp.1_1                             0x000021d0   Number         4  motor.o(.text.Velocity_B)
    __arm_cp.1_2                             0x000021d4   Number         4  motor.o(.text.Velocity_B)
    __arm_cp.1_3                             0x000021d8   Number         4  motor.o(.text.Velocity_B)
    [Anonymous Symbol]                       0x000021dc   Section        0  key.o(.text.click)
    __arm_cp.0_0                             0x00002274   Number         4  key.o(.text.click)
    [Anonymous Symbol]                       0x00002278   Section        0  board.o(.text.delay_ms)
    [Anonymous Symbol]                       0x000022bc   Section        0  board.o(.text.delay_us)
    __arm_cp.0_0                             0x000022fc   Number         4  board.o(.text.delay_us)
    [Anonymous Symbol]                       0x00002300   Section        0  board.o(.text.fputc)
    __arm_cp.6_0                             0x00002320   Number         4  board.o(.text.fputc)
    [Anonymous Symbol]                       0x00002324   Section        0  bsp_gyro.o(.text.get_angle)
    __arm_cp.9_1                             0x00002444   Number         4  bsp_gyro.o(.text.get_angle)
    __arm_cp.9_2                             0x00002448   Number         4  bsp_gyro.o(.text.get_angle)
    __arm_cp.9_3                             0x0000244c   Number         4  bsp_gyro.o(.text.get_angle)
    __arm_cp.9_4                             0x00002450   Number         4  bsp_gyro.o(.text.get_angle)
    __arm_cp.9_5                             0x00002454   Number         4  bsp_gyro.o(.text.get_angle)
    [Anonymous Symbol]                       0x00002458   Section        0  bsp_gyro.o(.text.jy61pInit)
    __arm_cp.0_0                             0x000024f4   Number         4  bsp_gyro.o(.text.jy61pInit)
    __arm_cp.0_1                             0x000024f8   Number         4  bsp_gyro.o(.text.jy61pInit)
    [Anonymous Symbol]                       0x000024fc   Section        0  empty.o(.text.main)
    __arm_cp.19_70                           0x00002890   Number         4  empty.o(.text.main)
    __arm_cp.19_40                           0x0000290c   Number         4  empty.o(.text.main)
    __arm_cp.19_41                           0x00002910   Number         4  empty.o(.text.main)
    __arm_cp.19_42                           0x00002914   Number         4  empty.o(.text.main)
    __arm_cp.19_43                           0x00002918   Number         4  empty.o(.text.main)
    __arm_cp.19_44                           0x0000291c   Number         4  empty.o(.text.main)
    __arm_cp.19_45                           0x00002920   Number         4  empty.o(.text.main)
    __arm_cp.19_46                           0x00002924   Number         4  empty.o(.text.main)
    __arm_cp.19_47                           0x00002928   Number         4  empty.o(.text.main)
    __arm_cp.19_49                           0x00002930   Number         4  empty.o(.text.main)
    __arm_cp.19_61                           0x00002964   Number         4  empty.o(.text.main)
    __arm_cp.19_62                           0x00002968   Number         4  empty.o(.text.main)
    __arm_cp.19_63                           0x0000296c   Number         4  empty.o(.text.main)
    __arm_cp.19_64                           0x00002970   Number         4  empty.o(.text.main)
    __arm_cp.19_66                           0x00002978   Number         4  empty.o(.text.main)
    __arm_cp.19_67                           0x0000297c   Number         4  empty.o(.text.main)
    __arm_cp.19_68                           0x00002980   Number         4  empty.o(.text.main)
    __arm_cp.19_9                            0x00002b98   Number         4  empty.o(.text.main)
    __arm_cp.19_13                           0x00002b9c   Number         4  empty.o(.text.main)
    __arm_cp.19_14                           0x00002ba0   Number         4  empty.o(.text.main)
    __arm_cp.19_17                           0x00002ba4   Number         4  empty.o(.text.main)
    __arm_cp.19_21                           0x00002ba8   Number         4  empty.o(.text.main)
    __arm_cp.19_23                           0x00002bac   Number         4  empty.o(.text.main)
    __arm_cp.19_24                           0x00002bb0   Number         4  empty.o(.text.main)
    __arm_cp.19_25                           0x00002bb4   Number         4  empty.o(.text.main)
    __arm_cp.19_26                           0x00002bb8   Number         4  empty.o(.text.main)
    __arm_cp.19_27                           0x00002bbc   Number         4  empty.o(.text.main)
    __arm_cp.19_28                           0x00002bc0   Number         4  empty.o(.text.main)
    __arm_cp.19_29                           0x00002bc4   Number         4  empty.o(.text.main)
    __arm_cp.19_30                           0x00002bc8   Number         4  empty.o(.text.main)
    __arm_cp.19_31                           0x00002bcc   Number         4  empty.o(.text.main)
    __arm_cp.19_32                           0x00002bd0   Number         4  empty.o(.text.main)
    __arm_cp.19_33                           0x00002bd4   Number         4  empty.o(.text.main)
    __arm_cp.19_34                           0x00002bd8   Number         4  empty.o(.text.main)
    __arm_cp.19_35                           0x00002bdc   Number         4  empty.o(.text.main)
    __arm_cp.19_36                           0x00002be0   Number         4  empty.o(.text.main)
    __arm_cp.19_37                           0x00002be4   Number         4  empty.o(.text.main)
    __arm_cp.19_38                           0x00002be8   Number         4  empty.o(.text.main)
    [Anonymous Symbol]                       0x00002bec   Section        0  bsp_gyro.o(.text.readDataJy61p)
    [Anonymous Symbol]                       0x00002d20   Section        0  bsp_gyro.o(.text.writeDataJy61p)
    __arm_cp.1_0                             0x00002dcc   Number         4  bsp_gyro.o(.text.writeDataJy61p)
    __arm_cp.1_1                             0x00002dd0   Number         4  bsp_gyro.o(.text.writeDataJy61p)
    i.__0printf                              0x00002dd4   Section        0  printfa.o(i.__0printf)
    i.__ARM_clz                              0x00002df4   Section        0  depilogue.o(i.__ARM_clz)
    i.__scatterload_copy                     0x00002e28   Section       14  handlers.o(i.__scatterload_copy)
    i.__scatterload_null                     0x00002e38   Section        2  handlers.o(i.__scatterload_null)
    i.__scatterload_zeroinit                 0x00002e40   Section       14  handlers.o(i.__scatterload_zeroinit)
    _fp_digits                               0x00002e51   Thumb Code   344  printfa.o(i._fp_digits)
    i._fp_digits                             0x00002e50   Section        0  printfa.o(i._fp_digits)
    _printf_core                             0x00002fc5   Thumb Code  1754  printfa.o(i._printf_core)
    i._printf_core                           0x00002fc4   Section        0  printfa.o(i._printf_core)
    _printf_post_padding                     0x000036b1   Thumb Code    32  printfa.o(i._printf_post_padding)
    i._printf_post_padding                   0x000036b0   Section        0  printfa.o(i._printf_post_padding)
    _printf_pre_padding                      0x000036d1   Thumb Code    44  printfa.o(i._printf_pre_padding)
    i._printf_pre_padding                    0x000036d0   Section        0  printfa.o(i._printf_pre_padding)
    i.puts                                   0x000036fc   Section        0  puts.o(i.puts)
    gPWM_0ClockConfig                        0x00003d0c   Data           3  ti_msp_dl_config.o(.rodata.gPWM_0ClockConfig)
    [Anonymous Symbol]                       0x00003d0c   Section        0  ti_msp_dl_config.o(.rodata.gPWM_0ClockConfig)
    gPWM_0Config                             0x00003d10   Data           8  ti_msp_dl_config.o(.rodata.gPWM_0Config)
    [Anonymous Symbol]                       0x00003d10   Section        0  ti_msp_dl_config.o(.rodata.gPWM_0Config)
    gPWM_1ClockConfig                        0x00003d18   Data           3  ti_msp_dl_config.o(.rodata.gPWM_1ClockConfig)
    [Anonymous Symbol]                       0x00003d18   Section        0  ti_msp_dl_config.o(.rodata.gPWM_1ClockConfig)
    gPWM_1Config                             0x00003d1c   Data           8  ti_msp_dl_config.o(.rodata.gPWM_1Config)
    [Anonymous Symbol]                       0x00003d1c   Section        0  ti_msp_dl_config.o(.rodata.gPWM_1Config)
    gTIMER_0ClockConfig                      0x00003d24   Data           3  ti_msp_dl_config.o(.rodata.gTIMER_0ClockConfig)
    [Anonymous Symbol]                       0x00003d24   Section        0  ti_msp_dl_config.o(.rodata.gTIMER_0ClockConfig)
    gTIMER_0TimerConfig                      0x00003d28   Data          20  ti_msp_dl_config.o(.rodata.gTIMER_0TimerConfig)
    [Anonymous Symbol]                       0x00003d28   Section        0  ti_msp_dl_config.o(.rodata.gTIMER_0TimerConfig)
    gTIMER_1ClockConfig                      0x00003d3c   Data           3  ti_msp_dl_config.o(.rodata.gTIMER_1ClockConfig)
    [Anonymous Symbol]                       0x00003d3c   Section        0  ti_msp_dl_config.o(.rodata.gTIMER_1ClockConfig)
    gTIMER_1TimerConfig                      0x00003d40   Data          20  ti_msp_dl_config.o(.rodata.gTIMER_1TimerConfig)
    [Anonymous Symbol]                       0x00003d40   Section        0  ti_msp_dl_config.o(.rodata.gTIMER_1TimerConfig)
    gUART_0ClockConfig                       0x00003d54   Data           2  ti_msp_dl_config.o(.rodata.gUART_0ClockConfig)
    [Anonymous Symbol]                       0x00003d54   Section        0  ti_msp_dl_config.o(.rodata.gUART_0ClockConfig)
    gUART_0Config                            0x00003d56   Data          10  ti_msp_dl_config.o(.rodata.gUART_0Config)
    [Anonymous Symbol]                       0x00003d56   Section        0  ti_msp_dl_config.o(.rodata.gUART_0Config)
    .data                                    0x20200000   Section        4  stdout.o(.data)
    CustomPIDControl.filteredYaw             0x20200068   Data           4  empty.o(.bss.CustomPIDControl.filteredYaw)
    [Anonymous Symbol]                       0x20200068   Section        0  empty.o(.bss.CustomPIDControl.filteredYaw)
    CustomPIDControl.lastYaw                 0x2020006c   Data           4  empty.o(.bss.CustomPIDControl.lastYaw)
    [Anonymous Symbol]                       0x2020006c   Section        0  empty.o(.bss.CustomPIDControl.lastYaw)
    UU_CustomPIDControl.UU_LastYaw           0x202000a4   Data           4  empty.o(.bss.UU_CustomPIDControl.UU_LastYaw)
    [Anonymous Symbol]                       0x202000a4   Section        0  empty.o(.bss.UU_CustomPIDControl.UU_LastYaw)
    Velocity_A.ControlVelocityA              0x202000c0   Data           4  motor.o(.bss.Velocity_A.ControlVelocityA)
    [Anonymous Symbol]                       0x202000c0   Section        0  motor.o(.bss.Velocity_A.ControlVelocityA)
    Velocity_A.Last_biasA                    0x202000c4   Data           4  motor.o(.bss.Velocity_A.Last_biasA)
    [Anonymous Symbol]                       0x202000c4   Section        0  motor.o(.bss.Velocity_A.Last_biasA)
    Velocity_B.ControlVelocityB              0x202000c8   Data           4  motor.o(.bss.Velocity_B.ControlVelocityB)
    [Anonymous Symbol]                       0x202000c8   Section        0  motor.o(.bss.Velocity_B.ControlVelocityB)
    Velocity_B.Last_biasB                    0x202000cc   Data           4  motor.o(.bss.Velocity_B.Last_biasB)
    [Anonymous Symbol]                       0x202000cc   Section        0  motor.o(.bss.Velocity_B.Last_biasB)
    navigation.counting1                     0x202003a8   Data           1  empty.o(.bss.navigation.counting1)
    [Anonymous Symbol]                       0x202003a8   Section        0  empty.o(.bss.navigation.counting1)
    STACK                                    0x20200468   Section     2048  startup_mspm0g350x_uvision.o(STACK)

    Global Symbols

    Symbol Name                              Value     Ov Type        Size  Object(Section)

    BuildAttributes$$THM_ISAv3M$S$PE$A:L22$X:L11$S22$IEEE1$IW$~IW$USESV6$~STKCKD$USESV7$~SHL$OTIME$ROPI$EBA8$MICROLIB$REQ8$PRES8$EABIv2 0x00000000   Number         0  anon$$obj.o ABSOLUTE
    __Vectors                                0x00000000   Data           4  startup_mspm0g350x_uvision.o(RESET)
    _printf_a                                0x00000000   Number         0  printfstubs.o ABSOLUTE
    _printf_c                                0x00000000   Number         0  printfstubs.o ABSOLUTE
    _printf_charcount                        0x00000000   Number         0  printfstubs.o ABSOLUTE
    _printf_d                                0x00000000   Number         0  printfstubs.o ABSOLUTE
    _printf_e                                0x00000000   Number         0  printfstubs.o ABSOLUTE
    _printf_f                                0x00000000   Number         0  printfstubs.o ABSOLUTE
    _printf_flags                            0x00000000   Number         0  printfstubs.o ABSOLUTE
    _printf_fp_dec                           0x00000000   Number         0  printfstubs.o ABSOLUTE
    _printf_fp_hex                           0x00000000   Number         0  printfstubs.o ABSOLUTE
    _printf_g                                0x00000000   Number         0  printfstubs.o ABSOLUTE
    _printf_i                                0x00000000   Number         0  printfstubs.o ABSOLUTE
    _printf_int_dec                          0x00000000   Number         0  printfstubs.o ABSOLUTE
    _printf_l                                0x00000000   Number         0  printfstubs.o ABSOLUTE
    _printf_lc                               0x00000000   Number         0  printfstubs.o ABSOLUTE
    _printf_ll                               0x00000000   Number         0  printfstubs.o ABSOLUTE
    _printf_lld                              0x00000000   Number         0  printfstubs.o ABSOLUTE
    _printf_lli                              0x00000000   Number         0  printfstubs.o ABSOLUTE
    _printf_llo                              0x00000000   Number         0  printfstubs.o ABSOLUTE
    _printf_llu                              0x00000000   Number         0  printfstubs.o ABSOLUTE
    _printf_llx                              0x00000000   Number         0  printfstubs.o ABSOLUTE
    _printf_longlong_dec                     0x00000000   Number         0  printfstubs.o ABSOLUTE
    _printf_longlong_hex                     0x00000000   Number         0  printfstubs.o ABSOLUTE
    _printf_longlong_oct                     0x00000000   Number         0  printfstubs.o ABSOLUTE
    _printf_ls                               0x00000000   Number         0  printfstubs.o ABSOLUTE
    _printf_mbtowc                           0x00000000   Number         0  printfstubs.o ABSOLUTE
    _printf_n                                0x00000000   Number         0  printfstubs.o ABSOLUTE
    _printf_o                                0x00000000   Number         0  printfstubs.o ABSOLUTE
    _printf_p                                0x00000000   Number         0  printfstubs.o ABSOLUTE
    _printf_percent                          0x00000000   Number         0  printfstubs.o ABSOLUTE
    _printf_pre_padding                      0x00000000   Number         0  printfstubs.o ABSOLUTE
    _printf_return_value                     0x00000000   Number         0  printfstubs.o ABSOLUTE
    _printf_s                                0x00000000   Number         0  printfstubs.o ABSOLUTE
    _printf_sizespec                         0x00000000   Number         0  printfstubs.o ABSOLUTE
    _printf_str                              0x00000000   Number         0  printfstubs.o ABSOLUTE
    _printf_truncate_signed                  0x00000000   Number         0  printfstubs.o ABSOLUTE
    _printf_truncate_unsigned                0x00000000   Number         0  printfstubs.o ABSOLUTE
    _printf_u                                0x00000000   Number         0  printfstubs.o ABSOLUTE
    _printf_wc                               0x00000000   Number         0  printfstubs.o ABSOLUTE
    _printf_wctomb                           0x00000000   Number         0  printfstubs.o ABSOLUTE
    _printf_widthprec                        0x00000000   Number         0  printfstubs.o ABSOLUTE
    _printf_x                                0x00000000   Number         0  printfstubs.o ABSOLUTE
    __cpp_initialize__aeabi_                  - Undefined Weak Reference
    __cxa_finalize                            - Undefined Weak Reference
    __decompress                              - Undefined Weak Reference
    _clock_init                               - Undefined Weak Reference
    _microlib_exit                            - Undefined Weak Reference
    __Vectors_End                            0x000000c0   Data           0  startup_mspm0g350x_uvision.o(RESET)
    __Vectors_Size                           0x000000c0   Number         0  startup_mspm0g350x_uvision.o ABSOLUTE
    __main                                   0x000000c1   Thumb Code     0  entry.o(.ARM.Collect$$$$00000000)
    _main_stk                                0x000000c1   Thumb Code     0  entry2.o(.ARM.Collect$$$$00000001)
    _main_scatterload                        0x000000c5   Thumb Code     0  entry5.o(.ARM.Collect$$$$00000004)
    __main_after_scatterload                 0x000000c9   Thumb Code     0  entry5.o(.ARM.Collect$$$$00000004)
    _main_clock                              0x000000c9   Thumb Code     0  entry7b.o(.ARM.Collect$$$$00000008)
    _main_cpp_init                           0x000000c9   Thumb Code     0  entry8b.o(.ARM.Collect$$$$0000000A)
    _main_init                               0x000000c9   Thumb Code     0  entry9a.o(.ARM.Collect$$$$0000000B)
    __rt_final_cpp                           0x000000d1   Thumb Code     0  entry10a.o(.ARM.Collect$$$$0000000D)
    __rt_final_exit                          0x000000d1   Thumb Code     0  entry11a.o(.ARM.Collect$$$$0000000F)
    Reset_Handler                            0x000000d5   Thumb Code     4  startup_mspm0g350x_uvision.o(.text)
    NMI_Handler                              0x000000d9   Thumb Code     2  startup_mspm0g350x_uvision.o(.text)
    HardFault_Handler                        0x000000db   Thumb Code     2  startup_mspm0g350x_uvision.o(.text)
    SVC_Handler                              0x000000dd   Thumb Code     2  startup_mspm0g350x_uvision.o(.text)
    PendSV_Handler                           0x000000df   Thumb Code     2  startup_mspm0g350x_uvision.o(.text)
    SysTick_Handler                          0x000000e1   Thumb Code     2  startup_mspm0g350x_uvision.o(.text)
    ADC0_IRQHandler                          0x000000e3   Thumb Code     0  startup_mspm0g350x_uvision.o(.text)
    ADC1_IRQHandler                          0x000000e3   Thumb Code     0  startup_mspm0g350x_uvision.o(.text)
    AES_IRQHandler                           0x000000e3   Thumb Code     0  startup_mspm0g350x_uvision.o(.text)
    CANFD0_IRQHandler                        0x000000e3   Thumb Code     0  startup_mspm0g350x_uvision.o(.text)
    DAC0_IRQHandler                          0x000000e3   Thumb Code     0  startup_mspm0g350x_uvision.o(.text)
    DMA_IRQHandler                           0x000000e3   Thumb Code     0  startup_mspm0g350x_uvision.o(.text)
    Default_Handler                          0x000000e3   Thumb Code     2  startup_mspm0g350x_uvision.o(.text)
    GROUP0_IRQHandler                        0x000000e3   Thumb Code     0  startup_mspm0g350x_uvision.o(.text)
    I2C0_IRQHandler                          0x000000e3   Thumb Code     0  startup_mspm0g350x_uvision.o(.text)
    I2C1_IRQHandler                          0x000000e3   Thumb Code     0  startup_mspm0g350x_uvision.o(.text)
    RTC_IRQHandler                           0x000000e3   Thumb Code     0  startup_mspm0g350x_uvision.o(.text)
    SPI0_IRQHandler                          0x000000e3   Thumb Code     0  startup_mspm0g350x_uvision.o(.text)
    SPI1_IRQHandler                          0x000000e3   Thumb Code     0  startup_mspm0g350x_uvision.o(.text)
    TIMG0_IRQHandler                         0x000000e3   Thumb Code     0  startup_mspm0g350x_uvision.o(.text)
    TIMG12_IRQHandler                        0x000000e3   Thumb Code     0  startup_mspm0g350x_uvision.o(.text)
    TIMG6_IRQHandler                         0x000000e3   Thumb Code     0  startup_mspm0g350x_uvision.o(.text)
    TIMG7_IRQHandler                         0x000000e3   Thumb Code     0  startup_mspm0g350x_uvision.o(.text)
    TIMG8_IRQHandler                         0x000000e3   Thumb Code     0  startup_mspm0g350x_uvision.o(.text)
    UART1_IRQHandler                         0x000000e3   Thumb Code     0  startup_mspm0g350x_uvision.o(.text)
    UART2_IRQHandler                         0x000000e3   Thumb Code     0  startup_mspm0g350x_uvision.o(.text)
    UART3_IRQHandler                         0x000000e3   Thumb Code     0  startup_mspm0g350x_uvision.o(.text)
    __aeabi_fadd                             0x000000e9   Thumb Code   162  fadd.o(.text)
    __aeabi_fsub                             0x0000018b   Thumb Code     8  fadd.o(.text)
    __aeabi_frsub                            0x00000193   Thumb Code     8  fadd.o(.text)
    __aeabi_fmul                             0x0000019b   Thumb Code   122  fmul.o(.text)
    __aeabi_dadd                             0x00000215   Thumb Code   328  dadd.o(.text)
    __aeabi_dsub                             0x0000035d   Thumb Code    12  dadd.o(.text)
    __aeabi_drsub                            0x00000369   Thumb Code    12  dadd.o(.text)
    __aeabi_dmul                             0x00000379   Thumb Code   202  dmul.o(.text)
    __aeabi_fcmple                           0x00000449   Thumb Code    28  fcmple.o(.text)
    __aeabi_fcmplt                           0x00000465   Thumb Code    28  fcmplt.o(.text)
    __aeabi_fcmpge                           0x00000481   Thumb Code    28  fcmpge.o(.text)
    __aeabi_fcmpgt                           0x0000049d   Thumb Code    28  fcmpgt.o(.text)
    __aeabi_i2f                              0x000004b9   Thumb Code    22  fflti.o(.text)
    __aeabi_i2d                              0x000004d1   Thumb Code    34  dflti.o(.text)
    __aeabi_f2iz                             0x000004f9   Thumb Code    50  ffixi.o(.text)
    __aeabi_d2iz                             0x0000052d   Thumb Code    62  dfixi.o(.text)
    __aeabi_f2d                              0x00000575   Thumb Code    40  f2d.o(.text)
    __aeabi_d2f                              0x0000059d   Thumb Code    56  d2f.o(.text)
    __aeabi_uidiv                            0x000005d5   Thumb Code     0  uidiv_div0.o(.text)
    __aeabi_uidivmod                         0x000005d5   Thumb Code    62  uidiv_div0.o(.text)
    __aeabi_idiv                             0x00000615   Thumb Code     0  idiv_div0.o(.text)
    __aeabi_idivmod$div0                     0x00000615   Thumb Code    74  idiv_div0.o(.text)
    __aeabi_uldivmod                         0x00000665   Thumb Code    96  uldiv.o(.text)
    __aeabi_llsl                             0x000006c5   Thumb Code    32  llshl.o(.text)
    _ll_shift_l                              0x000006c5   Thumb Code     0  llshl.o(.text)
    __aeabi_llsr                             0x000006e5   Thumb Code    34  llushr.o(.text)
    _ll_ushift_r                             0x000006e5   Thumb Code     0  llushr.o(.text)
    __aeabi_lasr                             0x00000707   Thumb Code    38  llsshr.o(.text)
    _ll_sshift_r                             0x00000707   Thumb Code     0  llsshr.o(.text)
    __I$use$fp                               0x0000072d   Thumb Code     0  iusefp.o(.text)
    _float_round                             0x0000072d   Thumb Code    16  fepilogue.o(.text)
    _float_epilogue                          0x0000073d   Thumb Code   114  fepilogue.o(.text)
    _double_round                            0x000007af   Thumb Code    26  depilogue.o(.text)
    _double_epilogue                         0x000007c9   Thumb Code   164  depilogue.o(.text)
    __aeabi_ddiv                             0x0000086d   Thumb Code   234  ddiv.o(.text)
    __aeabi_d2ulz                            0x0000095d   Thumb Code    54  dfixul.o(.text)
    __aeabi_cdrcmple                         0x0000099d   Thumb Code    38  cdrcmple.o(.text)
    __scatterload                            0x000009c9   Thumb Code    38  init.o(.text)
    __scatterload_rt2                        0x000009c9   Thumb Code     0  init.o(.text)
    CX_INIT                                  0x000009f9   Thumb Code   248  cx.o(.text.CX_INIT)
    CustomPIDControl                         0x00000afd   Thumb Code   220  empty.o(.text.CustomPIDControl)
    DL_Common_delayCycles                    0x00000c19   Thumb Code    10  dl_common.o(.text.DL_Common_delayCycles)
    DL_Timer_initPWMMode                     0x00000c25   Thumb Code   188  dl_timer.o(.text.DL_Timer_initPWMMode)
    DL_Timer_initTimerMode                   0x00000cf9   Thumb Code   224  dl_timer.o(.text.DL_Timer_initTimerMode)
    DL_Timer_setCaptCompUpdateMethod         0x00000de5   Thumb Code    24  dl_timer.o(.text.DL_Timer_setCaptCompUpdateMethod)
    DL_Timer_setCaptureCompareOutCtl         0x00000e01   Thumb Code    20  dl_timer.o(.text.DL_Timer_setCaptureCompareOutCtl)
    DL_Timer_setCaptureCompareValue          0x00000e19   Thumb Code    12  dl_timer.o(.text.DL_Timer_setCaptureCompareValue)
    DL_Timer_setClockConfig                  0x00000e29   Thumb Code    24  dl_timer.o(.text.DL_Timer_setClockConfig)
    DL_UART_init                             0x00000e45   Thumb Code    64  dl_uart.o(.text.DL_UART_init)
    DL_UART_setClockConfig                   0x00000e8d   Thumb Code    18  dl_uart.o(.text.DL_UART_setClockConfig)
    GROUP1_IRQHandler                        0x00000ea1   Thumb Code   128  encoder.o(.text.GROUP1_IRQHandler)
    I2C_WaitAck                              0x00000f31   Thumb Code   116  bsp_gyro.o(.text.I2C_WaitAck)
    OLED_Clear                               0x00000fb1   Thumb Code   276  oled.o(.text.OLED_Clear)
    OLED_I2C_SendByte                        0x000010c5   Thumb Code   324  oled.o(.text.OLED_I2C_SendByte)
    OLED_Init                                0x0000120d   Thumb Code   146  oled.o(.text.OLED_Init)
    OLED_ShowChar                            0x000012a1   Thumb Code   188  oled.o(.text.OLED_ShowChar)
    OLED_ShowSignedNum                       0x00001365   Thumb Code   176  oled.o(.text.OLED_ShowSignedNum)
    OLED_WriteCommand                        0x00001419   Thumb Code    92  oled.o(.text.OLED_WriteCommand)
    OLED_WriteData                           0x00001479   Thumb Code    92  oled.o(.text.OLED_WriteData)
    Read_Byte                                0x000014d5   Thumb Code   296  bsp_gyro.o(.text.Read_Byte)
    SYSCFG_DL_GPIO_init                      0x00001609   Thumb Code   168  ti_msp_dl_config.o(.text.SYSCFG_DL_GPIO_init)
    SYSCFG_DL_PWM_0_init                     0x000016e5   Thumb Code    72  ti_msp_dl_config.o(.text.SYSCFG_DL_PWM_0_init)
    SYSCFG_DL_PWM_1_init                     0x0000173d   Thumb Code    72  ti_msp_dl_config.o(.text.SYSCFG_DL_PWM_1_init)
    SYSCFG_DL_SYSCTL_init                    0x00001791   Thumb Code    64  ti_msp_dl_config.o(.text.SYSCFG_DL_SYSCTL_init)
    SYSCFG_DL_SYSTICK_init                   0x000017dd   Thumb Code    24  ti_msp_dl_config.o(.text.SYSCFG_DL_SYSTICK_init)
    SYSCFG_DL_TIMER_0_init                   0x000017f9   Thumb Code    36  ti_msp_dl_config.o(.text.SYSCFG_DL_TIMER_0_init)
    SYSCFG_DL_TIMER_1_init                   0x00001831   Thumb Code    36  ti_msp_dl_config.o(.text.SYSCFG_DL_TIMER_1_init)
    SYSCFG_DL_UART_0_init                    0x00001869   Thumb Code    88  ti_msp_dl_config.o(.text.SYSCFG_DL_UART_0_init)
    SYSCFG_DL_init                           0x000018d9   Thumb Code    52  ti_msp_dl_config.o(.text.SYSCFG_DL_init)
    SYSCFG_DL_initPower                      0x00001915   Thumb Code    60  ti_msp_dl_config.o(.text.SYSCFG_DL_initPower)
    Send_Byte                                0x00001975   Thumb Code   332  bsp_gyro.o(.text.Send_Byte)
    Set_PWM                                  0x00001ac5   Thumb Code    72  motor.o(.text.Set_PWM)
    TIMA0_IRQHandler                         0x00001b19   Thumb Code   360  empty.o(.text.TIMA0_IRQHandler)
    TIMA1_IRQHandler                         0x00001cad   Thumb Code    16  empty.o(.text.TIMA1_IRQHandler)
    UART0_IRQHandler                         0x00001cc1   Thumb Code    76  board.o(.text.UART0_IRQHandler)
    UU_CustomPIDControl                      0x00001d21   Thumb Code   296  empty.o(.text.UU_CustomPIDControl)
    UU_PIDControl                            0x00001e71   Thumb Code   660  empty.o(.text.UU_PIDControl)
    Velocity_A                               0x00002125   Thumb Code    80  motor.o(.text.Velocity_A)
    Velocity_B                               0x0000217d   Thumb Code    80  motor.o(.text.Velocity_B)
    click                                    0x000021dd   Thumb Code   152  key.o(.text.click)
    delay_ms                                 0x00002279   Thumb Code    68  board.o(.text.delay_ms)
    delay_us                                 0x000022bd   Thumb Code    64  board.o(.text.delay_us)
    fputc                                    0x00002301   Thumb Code    32  board.o(.text.fputc)
    get_angle                                0x00002325   Thumb Code   276  bsp_gyro.o(.text.get_angle)
    jy61pInit                                0x00002459   Thumb Code   156  bsp_gyro.o(.text.jy61pInit)
    main                                     0x000024fd   Thumb Code  1692  empty.o(.text.main)
    readDataJy61p                            0x00002bed   Thumb Code   308  bsp_gyro.o(.text.readDataJy61p)
    writeDataJy61p                           0x00002d21   Thumb Code   172  bsp_gyro.o(.text.writeDataJy61p)
    __0printf                                0x00002dd5   Thumb Code    24  printfa.o(i.__0printf)
    __1printf                                0x00002dd5   Thumb Code     0  printfa.o(i.__0printf)
    __2printf                                0x00002dd5   Thumb Code     0  printfa.o(i.__0printf)
    __c89printf                              0x00002dd5   Thumb Code     0  printfa.o(i.__0printf)
    printf                                   0x00002dd5   Thumb Code     0  printfa.o(i.__0printf)
    __ARM_clz                                0x00002df5   Thumb Code    46  depilogue.o(i.__ARM_clz)
    __scatterload_copy                       0x00002e29   Thumb Code    14  handlers.o(i.__scatterload_copy)
    __scatterload_null                       0x00002e39   Thumb Code     2  handlers.o(i.__scatterload_null)
    __scatterload_zeroinit                   0x00002e41   Thumb Code    14  handlers.o(i.__scatterload_zeroinit)
    puts                                     0x000036fd   Thumb Code    28  puts.o(i.puts)
    OLED_F8x16                               0x0000371c   Data        1520  oled.o(.rodata.OLED_F8x16)
    Region$$Table$$Base                      0x00003d60   Number         0  anon$$obj.o(Region$$Table)
    Region$$Table$$Limit                     0x00003d80   Number         0  anon$$obj.o(Region$$Table)
    __stdout                                 0x20200000   Data           4  stdout.o(.data)
    UU_DerGain                               0x20200004   Data           4  empty.o(.data.UU_DerGain)
    UU_DesiredYaw                            0x20200008   Data           4  empty.o(.data.UU_DesiredYaw)
    UU_IntGain                               0x2020000c   Data           4  empty.o(.data.UU_IntGain)
    UU_Kp                                    0x20200010   Data           4  empty.o(.data.UU_Kp)
    UU_MaxYawDiff                            0x20200014   Data           4  empty.o(.data.UU_MaxYawDiff)
    UU_PropGain                              0x20200018   Data           4  empty.o(.data.UU_PropGain)
    Velcity_Ki                               0x2020001c   Data           4  motor.o(.data.Velcity_Ki)
    Velcity_Kp                               0x20200020   Data           4  motor.o(.data.Velcity_Kp)
    condition_index                          0x20200024   Data           4  empty.o(.data.condition_index)
    derGain                                  0x20200028   Data           4  empty.o(.data.derGain)
    intGain                                  0x2020002c   Data           4  empty.o(.data.intGain)
    maxYawDiff                               0x20200030   Data           4  empty.o(.data.maxYawDiff)
    propGain                                 0x20200034   Data           4  empty.o(.data.propGain)
    CX_ZJG                                   0x20200038   Data          48  cx.o(.bss.CX_ZJG)
    Get_Encoder_countA                       0x20200070   Data           4  empty.o(.bss.Get_Encoder_countA)
    Get_Encoder_countB                       0x20200074   Data           4  empty.o(.bss.Get_Encoder_countB)
    Gyro_Structure                           0x20200078   Data          12  bsp_gyro.o(.bss.Gyro_Structure)
    Key_Num                                  0x20200084   Data           1  empty.o(.bss.Key_Num)
    PP_ErrorSum                              0x20200088   Data           4  empty.o(.bss.PP_ErrorSum)
    PP_PrevError                             0x2020008c   Data           4  empty.o(.bss.PP_PrevError)
    PWMA                                     0x20200090   Data           4  empty.o(.bss.PWMA)
    PWMB                                     0x20200094   Data           4  empty.o(.bss.PWMB)
    RR                                       0x20200098   Data           4  empty.o(.bss.RR)
    RR2                                      0x2020009c   Data           4  empty.o(.bss.RR2)
    Sensor_flag                              0x202000a0   Data           1  empty.o(.bss.Sensor_flag)
    Sensor_last_status                       0x202000a1   Data           1  empty.o(.bss.Sensor_last_status)
    Sensor_status                            0x202000a2   Data           1  empty.o(.bss.Sensor_status)
    UU_Kd                                    0x202000a8   Data           4  empty.o(.bss.UU_Kd)
    UU_Ki                                    0x202000ac   Data           4  empty.o(.bss.UU_Ki)
    UU_integral                              0x202000b0   Data           4  empty.o(.bss.UU_integral)
    UU_last_error                            0x202000b4   Data           4  empty.o(.bss.UU_last_error)
    UU_left_pwm                              0x202000b8   Data           4  empty.o(.bss.UU_left_pwm)
    UU_right_pwm                             0x202000bc   Data           4  empty.o(.bss.UU_right_pwm)
    Yaw                                      0x202000d0   Data           4  empty.o(.bss.Yaw)
    buzzer_triggered                         0x202000d4   Data          80  empty.o(.bss.buzzer_triggered)
    cfg                                      0x20200124   Data           4  empty.o(.bss.cfg)
    cx_cx                                    0x20200128   Data           1  empty.o(.bss.cx_cx)
    desiredYaw                               0x2020012c   Data           4  empty.o(.bss.desiredYaw)
    encoderA_cnt                             0x20200130   Data           4  empty.o(.bss.encoderA_cnt)
    encoderB_cnt                             0x20200134   Data           4  empty.o(.bss.encoderB_cnt)
    errorSum                                 0x20200138   Data           4  empty.o(.bss.errorSum)
    gTIMER_0Backup                           0x2020013c   Data         188  ti_msp_dl_config.o(.bss.gTIMER_0Backup)
    gTIMER_1Backup                           0x202001f8   Data         188  ti_msp_dl_config.o(.bss.gTIMER_1Backup)
    gpio_interrup                            0x202002b4   Data           4  encoder.o(.bss.gpio_interrup)
    led_active                               0x202002b8   Data          80  empty.o(.bss.led_active)
    led_timers                               0x20200308   Data          80  empty.o(.bss.led_timers)
    led_triggered                            0x20200358   Data          80  empty.o(.bss.led_triggered)
    navigation_count1                        0x202003a9   Data           1  empty.o(.bss.navigation_count1)
    navigation_count2                        0x202003aa   Data           1  empty.o(.bss.navigation_count2)
    num_test                                 0x202003ac   Data           4  empty.o(.bss.num_test)
    oo                                       0x202003b0   Data           4  empty.o(.bss.oo)
    oo2                                      0x202003b4   Data           4  empty.o(.bss.oo2)
    pid_left                                 0x202003b8   Data          20  empty.o(.bss.pid_left)
    pid_right1                               0x202003cc   Data          20  empty.o(.bss.pid_right1)
    prevError                                0x202003e0   Data           4  empty.o(.bss.prevError)
    recv0_buff                               0x202003e4   Data         128  board.o(.bss.recv0_buff)
    recv0_flag                               0x20200464   Data           1  board.o(.bss.recv0_flag)
    recv0_length                             0x20200466   Data           2  board.o(.bss.recv0_length)
    __initial_sp                             0x20200c68   Data           0  startup_mspm0g350x_uvision.o(STACK)



==============================================================================

Memory Map of the image

  Image Entry point : 0x000000c1

  Load Region LR_IROM1 (Base: 0x00000000, Size: 0x00003db8, Max: 0x00020000, ABSOLUTE)

    Execution Region ER_IROM1 (Exec base: 0x00000000, Load base: 0x00000000, Size: 0x00003d80, Max: 0x00020000, ABSOLUTE)

    Exec Addr    Load Addr    Size         Type   Attr      Idx    E Section Name        Object

    0x00000000   0x00000000   0x000000c0   Data   RO          122    RESET               startup_mspm0g350x_uvision.o
    0x000000c0   0x000000c0   0x00000000   Code   RO         1050  * .ARM.Collect$$$$00000000  mc_p.l(entry.o)
    0x000000c0   0x000000c0   0x00000004   Code   RO         1354    .ARM.Collect$$$$00000001  mc_p.l(entry2.o)
    0x000000c4   0x000000c4   0x00000004   Code   RO         1357    .ARM.Collect$$$$00000004  mc_p.l(entry5.o)
    0x000000c8   0x000000c8   0x00000000   Code   RO         1359    .ARM.Collect$$$$00000008  mc_p.l(entry7b.o)
    0x000000c8   0x000000c8   0x00000000   Code   RO         1361    .ARM.Collect$$$$0000000A  mc_p.l(entry8b.o)
    0x000000c8   0x000000c8   0x00000008   Code   RO         1362    .ARM.Collect$$$$0000000B  mc_p.l(entry9a.o)
    0x000000d0   0x000000d0   0x00000000   Code   RO         1364    .ARM.Collect$$$$0000000D  mc_p.l(entry10a.o)
    0x000000d0   0x000000d0   0x00000000   Code   RO         1366    .ARM.Collect$$$$0000000F  mc_p.l(entry11a.o)
    0x000000d0   0x000000d0   0x00000004   Code   RO         1355    .ARM.Collect$$$$00002712  mc_p.l(entry2.o)
    0x000000d4   0x000000d4   0x00000014   Code   RO          123    .text               startup_mspm0g350x_uvision.o
    0x000000e8   0x000000e8   0x000000b2   Code   RO         1326    .text               mf_p.l(fadd.o)
    0x0000019a   0x0000019a   0x0000007a   Code   RO         1328    .text               mf_p.l(fmul.o)
    0x00000214   0x00000214   0x00000164   Code   RO         1330    .text               mf_p.l(dadd.o)
    0x00000378   0x00000378   0x000000d0   Code   RO         1332    .text               mf_p.l(dmul.o)
    0x00000448   0x00000448   0x0000001c   Code   RO         1334    .text               mf_p.l(fcmple.o)
    0x00000464   0x00000464   0x0000001c   Code   RO         1336    .text               mf_p.l(fcmplt.o)
    0x00000480   0x00000480   0x0000001c   Code   RO         1338    .text               mf_p.l(fcmpge.o)
    0x0000049c   0x0000049c   0x0000001c   Code   RO         1340    .text               mf_p.l(fcmpgt.o)
    0x000004b8   0x000004b8   0x00000016   Code   RO         1342    .text               mf_p.l(fflti.o)
    0x000004ce   0x000004ce   0x00000002   PAD
    0x000004d0   0x000004d0   0x00000028   Code   RO         1344    .text               mf_p.l(dflti.o)
    0x000004f8   0x000004f8   0x00000032   Code   RO         1346    .text               mf_p.l(ffixi.o)
    0x0000052a   0x0000052a   0x00000002   PAD
    0x0000052c   0x0000052c   0x00000048   Code   RO         1348    .text               mf_p.l(dfixi.o)
    0x00000574   0x00000574   0x00000028   Code   RO         1350    .text               mf_p.l(f2d.o)
    0x0000059c   0x0000059c   0x00000038   Code   RO         1352    .text               mf_p.l(d2f.o)
    0x000005d4   0x000005d4   0x0000003e   Code   RO         1373    .text               mc_p.l(uidiv_div0.o)
    0x00000612   0x00000612   0x00000002   PAD
    0x00000614   0x00000614   0x00000050   Code   RO         1375    .text               mc_p.l(idiv_div0.o)
    0x00000664   0x00000664   0x00000060   Code   RO         1379    .text               mc_p.l(uldiv.o)
    0x000006c4   0x000006c4   0x00000020   Code   RO         1381    .text               mc_p.l(llshl.o)
    0x000006e4   0x000006e4   0x00000022   Code   RO         1383    .text               mc_p.l(llushr.o)
    0x00000706   0x00000706   0x00000026   Code   RO         1385    .text               mc_p.l(llsshr.o)
    0x0000072c   0x0000072c   0x00000000   Code   RO         1387    .text               mc_p.l(iusefp.o)
    0x0000072c   0x0000072c   0x00000082   Code   RO         1388    .text               mf_p.l(fepilogue.o)
    0x000007ae   0x000007ae   0x000000be   Code   RO         1390    .text               mf_p.l(depilogue.o)
    0x0000086c   0x0000086c   0x000000f0   Code   RO         1394    .text               mf_p.l(ddiv.o)
    0x0000095c   0x0000095c   0x00000040   Code   RO         1396    .text               mf_p.l(dfixul.o)
    0x0000099c   0x0000099c   0x00000028   Code   RO         1398    .text               mf_p.l(cdrcmple.o)
    0x000009c4   0x000009c4   0x00000004   PAD
    0x000009c8   0x000009c8   0x00000030   Code   RO         1400    .text               mc_p.l(init.o)
    0x000009f8   0x000009f8   0x00000104   Code   RO         1012    .text.CX_INIT       cx.o
    0x00000afc   0x00000afc   0x0000011c   Code   RO           20    .text.CustomPIDControl  empty.o
    0x00000c18   0x00000c18   0x0000000a   Code   RO          855    .text.DL_Common_delayCycles  dl_common.o
    0x00000c22   0x00000c22   0x00000002   PAD
    0x00000c24   0x00000c24   0x000000d4   Code   RO          289    .text.DL_Timer_initPWMMode  dl_timer.o
    0x00000cf8   0x00000cf8   0x000000ec   Code   RO          271    .text.DL_Timer_initTimerMode  dl_timer.o
    0x00000de4   0x00000de4   0x0000001c   Code   RO          303    .text.DL_Timer_setCaptCompUpdateMethod  dl_timer.o
    0x00000e00   0x00000e00   0x00000018   Code   RO          293    .text.DL_Timer_setCaptureCompareOutCtl  dl_timer.o
    0x00000e18   0x00000e18   0x00000010   Code   RO          273    .text.DL_Timer_setCaptureCompareValue  dl_timer.o
    0x00000e28   0x00000e28   0x0000001c   Code   RO          267    .text.DL_Timer_setClockConfig  dl_timer.o
    0x00000e44   0x00000e44   0x00000048   Code   RO          215    .text.DL_UART_init  dl_uart.o
    0x00000e8c   0x00000e8c   0x00000012   Code   RO          217    .text.DL_UART_setClockConfig  dl_uart.o
    0x00000e9e   0x00000e9e   0x00000002   PAD
    0x00000ea0   0x00000ea0   0x00000090   Code   RO          937    .text.GROUP1_IRQHandler  encoder.o
    0x00000f30   0x00000f30   0x00000080   Code   RO         1032    .text.I2C_WaitAck   bsp_gyro.o
    0x00000fb0   0x00000fb0   0x00000114   Code   RO          985    .text.OLED_Clear    oled.o
    0x000010c4   0x000010c4   0x00000148   Code   RO          977    .text.OLED_I2C_SendByte  oled.o
    0x0000120c   0x0000120c   0x00000092   Code   RO         1001    .text.OLED_Init     oled.o
    0x0000129e   0x0000129e   0x00000002   PAD
    0x000012a0   0x000012a0   0x000000c4   Code   RO          987    .text.OLED_ShowChar  oled.o
    0x00001364   0x00001364   0x000000b4   Code   RO          995    .text.OLED_ShowSignedNum  oled.o
    0x00001418   0x00001418   0x00000060   Code   RO          979    .text.OLED_WriteCommand  oled.o
    0x00001478   0x00001478   0x0000005c   Code   RO          981    .text.OLED_WriteData  oled.o
    0x000014d4   0x000014d4   0x00000134   Code   RO         1036    .text.Read_Byte     bsp_gyro.o
    0x00001608   0x00001608   0x000000dc   Code   RO          134    .text.SYSCFG_DL_GPIO_init  ti_msp_dl_config.o
    0x000016e4   0x000016e4   0x00000058   Code   RO          138    .text.SYSCFG_DL_PWM_0_init  ti_msp_dl_config.o
    0x0000173c   0x0000173c   0x00000054   Code   RO          140    .text.SYSCFG_DL_PWM_1_init  ti_msp_dl_config.o
    0x00001790   0x00001790   0x0000004c   Code   RO          136    .text.SYSCFG_DL_SYSCTL_init  ti_msp_dl_config.o
    0x000017dc   0x000017dc   0x0000001c   Code   RO          148    .text.SYSCFG_DL_SYSTICK_init  ti_msp_dl_config.o
    0x000017f8   0x000017f8   0x00000038   Code   RO          142    .text.SYSCFG_DL_TIMER_0_init  ti_msp_dl_config.o
    0x00001830   0x00001830   0x00000038   Code   RO          144    .text.SYSCFG_DL_TIMER_1_init  ti_msp_dl_config.o
    0x00001868   0x00001868   0x00000070   Code   RO          146    .text.SYSCFG_DL_UART_0_init  ti_msp_dl_config.o
    0x000018d8   0x000018d8   0x0000003c   Code   RO          130    .text.SYSCFG_DL_init  ti_msp_dl_config.o
    0x00001914   0x00001914   0x00000060   Code   RO          132    .text.SYSCFG_DL_initPower  ti_msp_dl_config.o
    0x00001974   0x00001974   0x00000150   Code   RO         1034    .text.Send_Byte     bsp_gyro.o
    0x00001ac4   0x00001ac4   0x00000054   Code   RO          950    .text.Set_PWM       motor.o
    0x00001b18   0x00001b18   0x00000194   Code   RO           44    .text.TIMA0_IRQHandler  empty.o
    0x00001cac   0x00001cac   0x00000014   Code   RO           42    .text.TIMA1_IRQHandler  empty.o
    0x00001cc0   0x00001cc0   0x00000060   Code   RO          188    .text.UART0_IRQHandler  board.o
    0x00001d20   0x00001d20   0x00000150   Code   RO           28    .text.UU_CustomPIDControl  empty.o
    0x00001e70   0x00001e70   0x000002b4   Code   RO           32    .text.UU_PIDControl  empty.o
    0x00002124   0x00002124   0x00000058   Code   RO          946    .text.Velocity_A    motor.o
    0x0000217c   0x0000217c   0x00000060   Code   RO          948    .text.Velocity_B    motor.o
    0x000021dc   0x000021dc   0x0000009c   Code   RO          926    .text.click         key.o
    0x00002278   0x00002278   0x00000044   Code   RO          176    .text.delay_ms      board.o
    0x000022bc   0x000022bc   0x00000044   Code   RO          174    .text.delay_us      board.o
    0x00002300   0x00002300   0x00000024   Code   RO          186    .text.fputc         board.o
    0x00002324   0x00002324   0x00000134   Code   RO         1040    .text.get_angle     bsp_gyro.o
    0x00002458   0x00002458   0x000000a4   Code   RO         1022    .text.jy61pInit     bsp_gyro.o
    0x000024fc   0x000024fc   0x000006f0   Code   RO           40    .text.main          empty.o
    0x00002bec   0x00002bec   0x00000134   Code   RO         1038    .text.readDataJy61p  bsp_gyro.o
    0x00002d20   0x00002d20   0x000000b4   Code   RO         1024    .text.writeDataJy61p  bsp_gyro.o
    0x00002dd4   0x00002dd4   0x00000020   Code   RO         1298    i.__0printf         mc_p.l(printfa.o)
    0x00002df4   0x00002df4   0x0000002e   Code   RO         1392    i.__ARM_clz         mf_p.l(depilogue.o)
    0x00002e22   0x00002e22   0x00000006   PAD
    0x00002e28   0x00002e28   0x0000000e   Code   RO         1404    i.__scatterload_copy  mc_p.l(handlers.o)
    0x00002e36   0x00002e36   0x00000002   PAD
    0x00002e38   0x00002e38   0x00000002   Code   RO         1405    i.__scatterload_null  mc_p.l(handlers.o)
    0x00002e3a   0x00002e3a   0x00000006   PAD
    0x00002e40   0x00002e40   0x0000000e   Code   RO         1406    i.__scatterload_zeroinit  mc_p.l(handlers.o)
    0x00002e4e   0x00002e4e   0x00000002   PAD
    0x00002e50   0x00002e50   0x00000174   Code   RO         1305    i._fp_digits        mc_p.l(printfa.o)
    0x00002fc4   0x00002fc4   0x000006ec   Code   RO         1306    i._printf_core      mc_p.l(printfa.o)
    0x000036b0   0x000036b0   0x00000020   Code   RO         1307    i._printf_post_padding  mc_p.l(printfa.o)
    0x000036d0   0x000036d0   0x0000002c   Code   RO         1308    i._printf_pre_padding  mc_p.l(printfa.o)
    0x000036fc   0x000036fc   0x00000020   Code   RO         1053    i.puts              mc_p.l(puts.o)
    0x0000371c   0x0000371c   0x000005f0   Data   RO         1003    .rodata.OLED_F8x16  oled.o
    0x00003d0c   0x00003d0c   0x00000003   Data   RO          156    .rodata.gPWM_0ClockConfig  ti_msp_dl_config.o
    0x00003d0f   0x00003d0f   0x00000001   PAD
    0x00003d10   0x00003d10   0x00000008   Data   RO          157    .rodata.gPWM_0Config  ti_msp_dl_config.o
    0x00003d18   0x00003d18   0x00000003   Data   RO          158    .rodata.gPWM_1ClockConfig  ti_msp_dl_config.o
    0x00003d1b   0x00003d1b   0x00000001   PAD
    0x00003d1c   0x00003d1c   0x00000008   Data   RO          159    .rodata.gPWM_1Config  ti_msp_dl_config.o
    0x00003d24   0x00003d24   0x00000003   Data   RO          160    .rodata.gTIMER_0ClockConfig  ti_msp_dl_config.o
    0x00003d27   0x00003d27   0x00000001   PAD
    0x00003d28   0x00003d28   0x00000014   Data   RO          161    .rodata.gTIMER_0TimerConfig  ti_msp_dl_config.o
    0x00003d3c   0x00003d3c   0x00000003   Data   RO          162    .rodata.gTIMER_1ClockConfig  ti_msp_dl_config.o
    0x00003d3f   0x00003d3f   0x00000001   PAD
    0x00003d40   0x00003d40   0x00000014   Data   RO          163    .rodata.gTIMER_1TimerConfig  ti_msp_dl_config.o
    0x00003d54   0x00003d54   0x00000002   Data   RO          164    .rodata.gUART_0ClockConfig  ti_msp_dl_config.o
    0x00003d56   0x00003d56   0x0000000a   Data   RO          165    .rodata.gUART_0Config  ti_msp_dl_config.o
    0x00003d60   0x00003d60   0x00000020   Data   RO         1403    Region$$Table       anon$$obj.o


    Execution Region RW_IRAM2 (Exec base: 0x20200000, Load base: 0x00003d80, Size: 0x00000c68, Max: 0x00008000, ABSOLUTE)

    Exec Addr    Load Addr    Size         Type   Attr      Idx    E Section Name        Object

    0x20200000   0x00003d80   0x00000004   Data   RW         1368    .data               mc_p.l(stdout.o)
    0x20200004   0x00003d84   0x00000004   Data   RW           64    .data.UU_DerGain    empty.o
    0x20200008   0x00003d88   0x00000004   Data   RW           67    .data.UU_DesiredYaw  empty.o
    0x2020000c   0x00003d8c   0x00000004   Data   RW           63    .data.UU_IntGain    empty.o
    0x20200010   0x00003d90   0x00000004   Data   RW           73    .data.UU_Kp         empty.o
    0x20200014   0x00003d94   0x00000004   Data   RW           69    .data.UU_MaxYawDiff  empty.o
    0x20200018   0x00003d98   0x00000004   Data   RW           62    .data.UU_PropGain   empty.o
    0x2020001c   0x00003d9c   0x00000004   Data   RW          953    .data.Velcity_Ki    motor.o
    0x20200020   0x00003da0   0x00000004   Data   RW          952    .data.Velcity_Kp    motor.o
    0x20200024   0x00003da4   0x00000004   Data   RW           96    .data.condition_index  empty.o
    0x20200028   0x00003da8   0x00000004   Data   RW           50    .data.derGain       empty.o
    0x2020002c   0x00003dac   0x00000004   Data   RW           49    .data.intGain       empty.o
    0x20200030   0x00003db0   0x00000004   Data   RW           55    .data.maxYawDiff    empty.o
    0x20200034   0x00003db4   0x00000004   Data   RW           48    .data.propGain      empty.o
    0x20200038        -       0x00000030   Zero   RW         1014    .bss.CX_ZJG         cx.o
    0x20200068        -       0x00000004   Zero   RW           60    .bss.CustomPIDControl.filteredYaw  empty.o
    0x2020006c        -       0x00000004   Zero   RW           61    .bss.CustomPIDControl.lastYaw  empty.o
    0x20200070        -       0x00000004   Zero   RW          104    .bss.Get_Encoder_countA  empty.o
    0x20200074        -       0x00000004   Zero   RW          105    .bss.Get_Encoder_countB  empty.o
    0x20200078        -       0x0000000c   Zero   RW         1042    .bss.Gyro_Structure  bsp_gyro.o
    0x20200084        -       0x00000001   Zero   RW           46    .bss.Key_Num        empty.o
    0x20200085   0x00003db8   0x00000003   PAD
    0x20200088        -       0x00000004   Zero   RW           66    .bss.PP_ErrorSum    empty.o
    0x2020008c        -       0x00000004   Zero   RW           65    .bss.PP_PrevError   empty.o
    0x20200090        -       0x00000004   Zero   RW          101    .bss.PWMA           empty.o
    0x20200094        -       0x00000004   Zero   RW          103    .bss.PWMB           empty.o
    0x20200098        -       0x00000004   Zero   RW           57    .bss.RR             empty.o
    0x2020009c        -       0x00000004   Zero   RW           59    .bss.RR2            empty.o
    0x202000a0        -       0x00000001   Zero   RW           83    .bss.Sensor_flag    empty.o
    0x202000a1        -       0x00000001   Zero   RW           81    .bss.Sensor_last_status  empty.o
    0x202000a2        -       0x00000001   Zero   RW           82    .bss.Sensor_status  empty.o
    0x202000a3   0x00003db8   0x00000001   PAD
    0x202000a4        -       0x00000004   Zero   RW           72    .bss.UU_CustomPIDControl.UU_LastYaw  empty.o
    0x202000a8        -       0x00000004   Zero   RW           75    .bss.UU_Kd          empty.o
    0x202000ac        -       0x00000004   Zero   RW           74    .bss.UU_Ki          empty.o
    0x202000b0        -       0x00000004   Zero   RW           77    .bss.UU_integral    empty.o
    0x202000b4        -       0x00000004   Zero   RW           76    .bss.UU_last_error  empty.o
    0x202000b8        -       0x00000004   Zero   RW           79    .bss.UU_left_pwm    empty.o
    0x202000bc        -       0x00000004   Zero   RW           80    .bss.UU_right_pwm   empty.o
    0x202000c0        -       0x00000004   Zero   RW          955    .bss.Velocity_A.ControlVelocityA  motor.o
    0x202000c4        -       0x00000004   Zero   RW          956    .bss.Velocity_A.Last_biasA  motor.o
    0x202000c8        -       0x00000004   Zero   RW          957    .bss.Velocity_B.ControlVelocityB  motor.o
    0x202000cc        -       0x00000004   Zero   RW          958    .bss.Velocity_B.Last_biasB  motor.o
    0x202000d0        -       0x00000004   Zero   RW           99    .bss.Yaw            empty.o
    0x202000d4        -       0x00000050   Zero   RW           95    .bss.buzzer_triggered  empty.o
    0x20200124        -       0x00000004   Zero   RW           78    .bss.cfg            empty.o
    0x20200128        -       0x00000001   Zero   RW           87    .bss.cx_cx          empty.o
    0x20200129   0x00003db8   0x00000003   PAD
    0x2020012c        -       0x00000004   Zero   RW           53    .bss.desiredYaw     empty.o
    0x20200130        -       0x00000004   Zero   RW          100    .bss.encoderA_cnt   empty.o
    0x20200134        -       0x00000004   Zero   RW          102    .bss.encoderB_cnt   empty.o
    0x20200138        -       0x00000004   Zero   RW           52    .bss.errorSum       empty.o
    0x2020013c        -       0x000000bc   Zero   RW          154    .bss.gTIMER_0Backup  ti_msp_dl_config.o
    0x202001f8        -       0x000000bc   Zero   RW          155    .bss.gTIMER_1Backup  ti_msp_dl_config.o
    0x202002b4        -       0x00000004   Zero   RW          939    .bss.gpio_interrup  encoder.o
    0x202002b8        -       0x00000050   Zero   RW           91    .bss.led_active     empty.o
    0x20200308        -       0x00000050   Zero   RW           90    .bss.led_timers     empty.o
    0x20200358        -       0x00000050   Zero   RW           92    .bss.led_triggered  empty.o
    0x202003a8        -       0x00000001   Zero   RW           86    .bss.navigation.counting1  empty.o
    0x202003a9        -       0x00000001   Zero   RW           84    .bss.navigation_count1  empty.o
    0x202003aa        -       0x00000001   Zero   RW           85    .bss.navigation_count2  empty.o
    0x202003ab   0x00003db8   0x00000001   PAD
    0x202003ac        -       0x00000004   Zero   RW           88    .bss.num_test       empty.o
    0x202003b0        -       0x00000004   Zero   RW           56    .bss.oo             empty.o
    0x202003b4        -       0x00000004   Zero   RW           58    .bss.oo2            empty.o
    0x202003b8        -       0x00000014   Zero   RW           97    .bss.pid_left       empty.o
    0x202003cc        -       0x00000014   Zero   RW           98    .bss.pid_right1     empty.o
    0x202003e0        -       0x00000004   Zero   RW           51    .bss.prevError      empty.o
    0x202003e4        -       0x00000080   Zero   RW          190    .bss.recv0_buff     board.o
    0x20200464        -       0x00000001   Zero   RW          192    .bss.recv0_flag     board.o
    0x20200465   0x00003db8   0x00000001   PAD
    0x20200466        -       0x00000002   Zero   RW          191    .bss.recv0_length   board.o
    0x20200468        -       0x00000800   Zero   RW          120    STACK               startup_mspm0g350x_uvision.o



  Load Region LR_BCR (Base: 0x41c00000, Size: 0x00000000, Max: 0x00000100, ABSOLUTE)

    Execution Region BCR_CONFIG (Exec base: 0x41c00000, Load base: 0x41c00000, Size: 0x00000000, Max: 0x00000080, ABSOLUTE)

    **** No section assigned to this execution region ****



  Load Region LR_BSL (Base: 0x41c00100, Size: 0x00000000, Max: 0x00000100, ABSOLUTE)

    Execution Region BSL_CONFIG (Exec base: 0x41c00100, Load base: 0x41c00100, Size: 0x00000000, Max: 0x00000080, ABSOLUTE)

    **** No section assigned to this execution region ****


==============================================================================

Image component sizes


      Code (inc. data)   RO Data    RW Data    ZI Data      Debug   Object Name

       268         28          0          0        131       7884   board.o
      1732         76          0          0         12      14968   bsp_gyro.o
       260         12          0          0         48       4338   cx.o
        10          0          0          0          0        547   dl_common.o
       544        192          0          0          0      31931   dl_timer.o
        90          8          0          0          0      14461   dl_uart.o
      3512        396          0         44        476      21493   empty.o
       144         16          0          0          4       3922   encoder.o
       156          4          0          0          0       4099   key.o
       268         36          0          8         16       6901   motor.o
      1314         20       1520          0          0      12693   oled.o
        20          4        192          0       2048        596   startup_mspm0g350x_uvision.o
       876        204         80          0        376      30309   ti_msp_dl_config.o

    ----------------------------------------------------------------------
      9200        996       1828         52       3120     154142   Object Totals
         0          0         32          0          0          0   (incl. Generated)
         6          0          4          0          9          0   (incl. Padding)

    ----------------------------------------------------------------------

      Code (inc. data)   RO Data    RW Data    ZI Data      Debug   Library Member Name

         0          0          0          0          0          0   entry.o
         0          0          0          0          0          0   entry10a.o
         0          0          0          0          0          0   entry11a.o
         8          4          0          0          0          0   entry2.o
         4          0          0          0          0          0   entry5.o
         0          0          0          0          0          0   entry7b.o
         0          0          0          0          0          0   entry8b.o
         8          4          0          0          0          0   entry9a.o
        30          0          0          0          0          0   handlers.o
        80          6          0          0          0         72   idiv_div0.o
        48         10          0          0          0         68   init.o
         0          0          0          0          0          0   iusefp.o
        32          0          0          0          0         68   llshl.o
        38          0          0          0          0         68   llsshr.o
        34          0          0          0          0         68   llushr.o
      2252         98          0          0          0        412   printfa.o
        32          4          0          0          0         68   puts.o
         0          0          0          4          0          0   stdout.o
        62          0          0          0          0         72   uidiv_div0.o
        96          0          0          0          0         84   uldiv.o
        40          2          0          0          0         68   cdrcmple.o
        56          0          0          0          0         68   d2f.o
       356          4          0          0          0        140   dadd.o
       240          6          0          0          0         84   ddiv.o
       236          0          0          0          0        216   depilogue.o
        72         10          0          0          0         72   dfixi.o
        64         10          0          0          0         68   dfixul.o
        40          6          0          0          0         68   dflti.o
       208          6          0          0          0         88   dmul.o
        40          0          0          0          0         60   f2d.o
       178          0          0          0          0        108   fadd.o
        28          0          0          0          0         60   fcmpge.o
        28          0          0          0          0         60   fcmpgt.o
        28          0          0          0          0         60   fcmple.o
        28          0          0          0          0         60   fcmplt.o
       130          0          0          0          0        144   fepilogue.o
        50          0          0          0          0         60   ffixi.o
        22          0          0          0          0         68   fflti.o
       122          0          0          0          0         72   fmul.o

    ----------------------------------------------------------------------
      4716        174          0          4          0       2604   Library Totals
        26          4          0          0          0          0   (incl. Padding)

    ----------------------------------------------------------------------

      Code (inc. data)   RO Data    RW Data    ZI Data      Debug   Library Name

      2724        126          0          4          0        980   mc_p.l
      1966         44          0          0          0       1624   mf_p.l

    ----------------------------------------------------------------------
      4716        174          0          4          0       2604   Library Totals

    ----------------------------------------------------------------------

==============================================================================


      Code (inc. data)   RO Data    RW Data    ZI Data      Debug   

     13916       1170       1828         56       3120     155350   Grand Totals
     13916       1170       1828         56       3120     155350   ELF Image Totals
     13916       1170       1828         56          0          0   ROM Totals

==============================================================================

    Total RO  Size (Code + RO Data)                15744 (  15.38kB)
    Total RW  Size (RW Data + ZI Data)              3176 (   3.10kB)
    Total ROM Size (Code + RO Data + RW Data)      15800 (  15.43kB)

==============================================================================

